{
  "_format": "hh-sol-artifact-1",
  "contractName": "CTBPass",
  "sourceName": "contracts/CTBPass.sol",
  "abi": [
    {
      "inputs": [],
      "stateMutability": "nonpayable",
      "type": "constructor"
    },
    {
      "anonymous": false,
      "inputs": [
        {
          "indexed": true,
          "internalType": "address",
          "name": "owner",
          "type": "address"
        },
        {
          "indexed": true,
          "internalType": "address",
          "name": "approved",
          "type": "address"
        },
        {
          "indexed": true,
          "internalType": "uint256",
          "name": "tokenId",
          "type": "uint256"
        }
      ],
      "name": "Approval",
      "type": "event"
    },
    {
      "anonymous": false,
      "inputs": [
        {
          "indexed": true,
          "internalType": "address",
          "name": "owner",
          "type": "address"
        },
        {
          "indexed": true,
          "internalType": "address",
          "name": "operator",
          "type": "address"
        },
        {
          "indexed": false,
          "internalType": "bool",
          "name": "approved",
          "type": "bool"
        }
      ],
      "name": "ApprovalForAll",
      "type": "event"
    },
    {
      "anonymous": false,
      "inputs": [
        {
          "indexed": false,
          "internalType": "address",
          "name": "sender",
          "type": "address"
        },
        {
          "indexed": false,
          "internalType": "uint256",
          "name": "tokenId",
          "type": "uint256"
        }
      ],
      "name": "NewPassMinted",
      "type": "event"
    },
    {
      "anonymous": false,
      "inputs": [
        {
          "indexed": true,
          "internalType": "address",
          "name": "previousOwner",
          "type": "address"
        },
        {
          "indexed": true,
          "internalType": "address",
          "name": "newOwner",
          "type": "address"
        }
      ],
      "name": "OwnershipTransferred",
      "type": "event"
    },
    {
      "anonymous": false,
      "inputs": [
        {
          "indexed": true,
          "internalType": "address",
          "name": "from",
          "type": "address"
        },
        {
          "indexed": true,
          "internalType": "address",
          "name": "to",
          "type": "address"
        },
        {
          "indexed": true,
          "internalType": "uint256",
          "name": "tokenId",
          "type": "uint256"
        }
      ],
      "name": "Transfer",
      "type": "event"
    },
    {
      "inputs": [],
      "name": "MINT_LIMIT",
      "outputs": [
        {
          "internalType": "uint256",
          "name": "",
          "type": "uint256"
        }
      ],
      "stateMutability": "view",
      "type": "function"
    },
    {
      "inputs": [],
      "name": "OG_LIMIT",
      "outputs": [
        {
          "internalType": "uint256",
          "name": "",
          "type": "uint256"
        }
      ],
      "stateMutability": "view",
      "type": "function"
    },
    {
      "inputs": [
        {
          "internalType": "address",
          "name": "to",
          "type": "address"
        },
        {
          "internalType": "uint256",
          "name": "tokenId",
          "type": "uint256"
        }
      ],
      "name": "approve",
      "outputs": [],
      "stateMutability": "nonpayable",
      "type": "function"
    },
    {
      "inputs": [
        {
          "internalType": "address",
          "name": "owner",
          "type": "address"
        }
      ],
      "name": "balanceOf",
      "outputs": [
        {
          "internalType": "uint256",
          "name": "",
          "type": "uint256"
        }
      ],
      "stateMutability": "view",
      "type": "function"
    },
    {
      "inputs": [
        {
          "internalType": "uint256",
          "name": "tokenId",
          "type": "uint256"
        }
      ],
      "name": "getApproved",
      "outputs": [
        {
          "internalType": "address",
          "name": "",
          "type": "address"
        }
      ],
      "stateMutability": "view",
      "type": "function"
    },
    {
      "inputs": [
        {
          "internalType": "address",
          "name": "owner",
          "type": "address"
        },
        {
          "internalType": "address",
          "name": "operator",
          "type": "address"
        }
      ],
      "name": "isApprovedForAll",
      "outputs": [
        {
          "internalType": "bool",
          "name": "",
          "type": "bool"
        }
      ],
      "stateMutability": "view",
      "type": "function"
    },
    {
      "inputs": [],
      "name": "mintTheMFPass",
      "outputs": [],
      "stateMutability": "payable",
      "type": "function"
    },
    {
      "inputs": [],
      "name": "name",
      "outputs": [
        {
          "internalType": "string",
          "name": "",
          "type": "string"
        }
      ],
      "stateMutability": "view",
      "type": "function"
    },
    {
      "inputs": [],
      "name": "owner",
      "outputs": [
        {
          "internalType": "address",
          "name": "",
          "type": "address"
        }
      ],
      "stateMutability": "view",
      "type": "function"
    },
    {
      "inputs": [
        {
          "internalType": "uint256",
          "name": "tokenId",
          "type": "uint256"
        }
      ],
      "name": "ownerOf",
      "outputs": [
        {
          "internalType": "address",
          "name": "",
          "type": "address"
        }
      ],
      "stateMutability": "view",
      "type": "function"
    },
    {
      "inputs": [],
      "name": "renounceOwnership",
      "outputs": [],
      "stateMutability": "nonpayable",
      "type": "function"
    },
    {
      "inputs": [
        {
          "internalType": "address",
          "name": "from",
          "type": "address"
        },
        {
          "internalType": "address",
          "name": "to",
          "type": "address"
        },
        {
          "internalType": "uint256",
          "name": "tokenId",
          "type": "uint256"
        }
      ],
      "name": "safeTransferFrom",
      "outputs": [],
      "stateMutability": "nonpayable",
      "type": "function"
    },
    {
      "inputs": [
        {
          "internalType": "address",
          "name": "from",
          "type": "address"
        },
        {
          "internalType": "address",
          "name": "to",
          "type": "address"
        },
        {
          "internalType": "uint256",
          "name": "tokenId",
          "type": "uint256"
        },
        {
          "internalType": "bytes",
          "name": "data",
          "type": "bytes"
        }
      ],
      "name": "safeTransferFrom",
      "outputs": [],
      "stateMutability": "nonpayable",
      "type": "function"
    },
    {
      "inputs": [
        {
          "internalType": "address",
          "name": "operator",
          "type": "address"
        },
        {
          "internalType": "bool",
          "name": "approved",
          "type": "bool"
        }
      ],
      "name": "setApprovalForAll",
      "outputs": [],
      "stateMutability": "nonpayable",
      "type": "function"
    },
    {
      "inputs": [
        {
          "internalType": "bytes4",
          "name": "interfaceId",
          "type": "bytes4"
        }
      ],
      "name": "supportsInterface",
      "outputs": [
        {
          "internalType": "bool",
          "name": "",
          "type": "bool"
        }
      ],
      "stateMutability": "view",
      "type": "function"
    },
    {
      "inputs": [],
      "name": "symbol",
      "outputs": [
        {
          "internalType": "string",
          "name": "",
          "type": "string"
        }
      ],
      "stateMutability": "view",
      "type": "function"
    },
    {
      "inputs": [
        {
          "internalType": "uint256",
          "name": "tokenId",
          "type": "uint256"
        }
      ],
      "name": "tokenURI",
      "outputs": [
        {
          "internalType": "string",
          "name": "",
          "type": "string"
        }
      ],
      "stateMutability": "view",
      "type": "function"
    },
    {
      "inputs": [
        {
          "internalType": "address",
          "name": "from",
          "type": "address"
        },
        {
          "internalType": "address",
          "name": "to",
          "type": "address"
        },
        {
          "internalType": "uint256",
          "name": "tokenId",
          "type": "uint256"
        }
      ],
      "name": "transferFrom",
      "outputs": [],
      "stateMutability": "nonpayable",
      "type": "function"
    },
    {
      "inputs": [
        {
          "internalType": "address",
          "name": "newOwner",
          "type": "address"
        }
      ],
      "name": "transferOwnership",
      "outputs": [],
      "stateMutability": "nonpayable",
      "type": "function"
    }
  ],
  "bytecode": "0x60806040523480156200001157600080fd5b506040518060400160405280601b81526020017f436f6f6b2074686520426f6f6b732050617373202d20746573743300000000008152506040518060400160405280600481526020017f4354425000000000000000000000000000000000000000000000000000000000815250816000908051906020019062000096929190620001d3565b508060019080519060200190620000af929190620001d3565b505050620000d2620000c6620000ef60201b60201c565b620000f760201b60201c565b620000e96008620001bd60201b62000f171760201c565b620002e8565b600033905090565b6000600760009054906101000a900473ffffffffffffffffffffffffffffffffffffffff16905081600760006101000a81548173ffffffffffffffffffffffffffffffffffffffff021916908373ffffffffffffffffffffffffffffffffffffffff1602179055508173ffffffffffffffffffffffffffffffffffffffff168173ffffffffffffffffffffffffffffffffffffffff167f8be0079c531659141344cd1fd0a4f28419497f9722a3daafe3b4186f6b6457e060405160405180910390a35050565b6001816000016000828254019250508190555050565b828054620001e19062000283565b90600052602060002090601f01602090048101928262000205576000855562000251565b82601f106200022057805160ff191683800117855562000251565b8280016001018555821562000251579182015b828111156200025057825182559160200191906001019062000233565b5b50905062000260919062000264565b5090565b5b808211156200027f57600081600090555060010162000265565b5090565b600060028204905060018216806200029c57607f821691505b60208210811415620002b357620002b2620002b9565b5b50919050565b7f4e487b7100000000000000000000000000000000000000000000000000000000600052602260045260246000fd5b6132c680620002f86000396000f3fe6080604052600436106101145760003560e01c806370a08231116100a0578063a22cb46511610064578063a22cb46514610380578063b88d4fde146103a9578063c87b56dd146103d2578063e985e9c51461040f578063f2fde38b1461044c57610114565b806370a08231146102cc578063715018a6146103095780638da5cb5b1461032057806395d89b411461034b578063a12d29201461037657610114565b8063095ea7b3116100e7578063095ea7b3146101e957806323b872dd1461021257806342842e0e1461023b578063631123ab146102645780636352211e1461028f57610114565b806301ffc9a714610119578063027752401461015657806306fdde0314610181578063081812fc146101ac575b600080fd5b34801561012557600080fd5b50610140600480360381019061013b9190612121565b610475565b60405161014d91906125dc565b60405180910390f35b34801561016257600080fd5b5061016b610557565b6040516101789190612899565b60405180910390f35b34801561018d57600080fd5b5061019661055c565b6040516101a391906125f7565b60405180910390f35b3480156101b857600080fd5b506101d360048036038101906101ce9190612173565b6105ee565b6040516101e0919061254c565b60405180910390f35b3480156101f557600080fd5b50610210600480360381019061020b91906120e5565b610673565b005b34801561021e57600080fd5b5061023960048036038101906102349190611fdf565b61078b565b005b34801561024757600080fd5b50610262600480360381019061025d9190611fdf565b6107eb565b005b34801561027057600080fd5b5061027961080b565b6040516102869190612899565b60405180910390f35b34801561029b57600080fd5b506102b660048036038101906102b19190612173565b610810565b6040516102c3919061254c565b60405180910390f35b3480156102d857600080fd5b506102f360048036038101906102ee9190611f7a565b6108c2565b6040516103009190612899565b60405180910390f35b34801561031557600080fd5b5061031e61097a565b005b34801561032c57600080fd5b50610335610a02565b604051610342919061254c565b60405180910390f35b34801561035757600080fd5b50610360610a2c565b60405161036d91906125f7565b60405180910390f35b61037e610abe565b005b34801561038c57600080fd5b506103a760048036038101906103a291906120a9565b610bc1565b005b3480156103b557600080fd5b506103d060048036038101906103cb919061202e565b610bd7565b005b3480156103de57600080fd5b506103f960048036038101906103f49190612173565b610c39565b60405161040691906125f7565b60405180910390f35b34801561041b57600080fd5b5061043660048036038101906104319190611fa3565b610d8b565b60405161044391906125dc565b60405180910390f35b34801561045857600080fd5b50610473600480360381019061046e9190611f7a565b610e1f565b005b60007f80ac58cd000000000000000000000000000000000000000000000000000000007bffffffffffffffffffffffffffffffffffffffffffffffffffffffff1916827bffffffffffffffffffffffffffffffffffffffffffffffffffffffff1916148061054057507f5b5e139f000000000000000000000000000000000000000000000000000000007bffffffffffffffffffffffffffffffffffffffffffffffffffffffff1916827bffffffffffffffffffffffffffffffffffffffffffffffffffffffff1916145b80610550575061054f82610f2d565b5b9050919050565b600a81565b60606000805461056b90612abe565b80601f016020809104026020016040519081016040528092919081815260200182805461059790612abe565b80156105e45780601f106105b9576101008083540402835291602001916105e4565b820191906000526020600020905b8154815290600101906020018083116105c757829003601f168201915b5050505050905090565b60006105f982610f97565b610638576040517f08c379a000000000000000000000000000000000000000000000000000000000815260040161062f906127f9565b60405180910390fd5b6004600083815260200190815260200160002060009054906101000a900473ffffffffffffffffffffffffffffffffffffffff169050919050565b600061067e82610810565b90508073ffffffffffffffffffffffffffffffffffffffff168373ffffffffffffffffffffffffffffffffffffffff1614156106ef576040517f08c379a00000000000000000000000000000000000000000000000000000000081526004016106e690612859565b60405180910390fd5b8073ffffffffffffffffffffffffffffffffffffffff1661070e611003565b73ffffffffffffffffffffffffffffffffffffffff16148061073d575061073c81610737611003565b610d8b565b5b61077c576040517f08c379a000000000000000000000000000000000000000000000000000000000815260040161077390612739565b60405180910390fd5b610786838361100b565b505050565b61079c610796611003565b826110c4565b6107db576040517f08c379a00000000000000000000000000000000000000000000000000000000081526004016107d290612879565b60405180910390fd5b6107e68383836111a2565b505050565b61080683838360405180602001604052806000815250610bd7565b505050565b600281565b6000806002600084815260200190815260200160002060009054906101000a900473ffffffffffffffffffffffffffffffffffffffff169050600073ffffffffffffffffffffffffffffffffffffffff168173ffffffffffffffffffffffffffffffffffffffff1614156108b9576040517f08c379a00000000000000000000000000000000000000000000000000000000081526004016108b090612779565b60405180910390fd5b80915050919050565b60008073ffffffffffffffffffffffffffffffffffffffff168273ffffffffffffffffffffffffffffffffffffffff161415610933576040517f08c379a000000000000000000000000000000000000000000000000000000000815260040161092a90612719565b60405180910390fd5b600360008373ffffffffffffffffffffffffffffffffffffffff1673ffffffffffffffffffffffffffffffffffffffff168152602001908152602001600020549050919050565b610982611003565b73ffffffffffffffffffffffffffffffffffffffff166109a0610a02565b73ffffffffffffffffffffffffffffffffffffffff16146109f6576040517f08c379a00000000000000000000000000000000000000000000000000000000081526004016109ed90612819565b60405180910390fd5b610a006000611409565b565b6000600760009054906101000a900473ffffffffffffffffffffffffffffffffffffffff16905090565b606060018054610a3b90612abe565b80601f0160208091040260200160405190810160405280929190818152602001828054610a6790612abe565b8015610ab45780601f10610a8957610100808354040283529160200191610ab4565b820191906000526020600020905b815481529060010190602001808311610a9757829003601f168201915b5050505050905090565b6000610aca60086114cf565b9050600a811115610b10576040517f08c379a0000000000000000000000000000000000000000000000000000000008152600401610b0790612699565b60405180910390fd5b60028111610b2657610b21816114dd565b610b7b565b670de0b6b3a7640000341015610b71576040517f08c379a0000000000000000000000000000000000000000000000000000000008152600401610b6890612759565b60405180910390fd5b610b7a81611512565b5b7f27a1a3467613fd4d11e7388644c0e1af0fecbbd416b5710aebbea9f19f1d97cc3382604051610bac9291906125b3565b60405180910390a1610bbe6008610f17565b50565b610bd3610bcc611003565b8383611547565b5050565b610be8610be2611003565b836110c4565b610c27576040517f08c379a0000000000000000000000000000000000000000000000000000000008152600401610c1e90612879565b60405180910390fd5b610c33848484846116b4565b50505050565b6060610c4482610f97565b610c83576040517f08c379a0000000000000000000000000000000000000000000000000000000008152600401610c7a906127d9565b60405180910390fd5b6000600660008481526020019081526020016000208054610ca390612abe565b80601f0160208091040260200160405190810160405280929190818152602001828054610ccf90612abe565b8015610d1c5780601f10610cf157610100808354040283529160200191610d1c565b820191906000526020600020905b815481529060010190602001808311610cff57829003601f168201915b505050505090506000610d2d611710565b9050600081511415610d43578192505050610d86565b600082511115610d78578082604051602001610d60929190612528565b60405160208183030381529060405292505050610d86565b610d8184611727565b925050505b919050565b6000600560008473ffffffffffffffffffffffffffffffffffffffff1673ffffffffffffffffffffffffffffffffffffffff16815260200190815260200160002060008373ffffffffffffffffffffffffffffffffffffffff1673ffffffffffffffffffffffffffffffffffffffff16815260200190815260200160002060009054906101000a900460ff16905092915050565b610e27611003565b73ffffffffffffffffffffffffffffffffffffffff16610e45610a02565b73ffffffffffffffffffffffffffffffffffffffff1614610e9b576040517f08c379a0000000000000000000000000000000000000000000000000000000008152600401610e9290612819565b60405180910390fd5b600073ffffffffffffffffffffffffffffffffffffffff168173ffffffffffffffffffffffffffffffffffffffff161415610f0b576040517f08c379a0000000000000000000000000000000000000000000000000000000008152600401610f0290612639565b60405180910390fd5b610f1481611409565b50565b6001816000016000828254019250508190555050565b60007f01ffc9a7000000000000000000000000000000000000000000000000000000007bffffffffffffffffffffffffffffffffffffffffffffffffffffffff1916827bffffffffffffffffffffffffffffffffffffffffffffffffffffffff1916149050919050565b60008073ffffffffffffffffffffffffffffffffffffffff166002600084815260200190815260200160002060009054906101000a900473ffffffffffffffffffffffffffffffffffffffff1673ffffffffffffffffffffffffffffffffffffffff1614159050919050565b600033905090565b816004600083815260200190815260200160002060006101000a81548173ffffffffffffffffffffffffffffffffffffffff021916908373ffffffffffffffffffffffffffffffffffffffff160217905550808273ffffffffffffffffffffffffffffffffffffffff1661107e83610810565b73ffffffffffffffffffffffffffffffffffffffff167f8c5be1e5ebec7d5bd14f71427d1e84f3dd0314c0f7b2291e5b200ac8c7c3b92560405160405180910390a45050565b60006110cf82610f97565b61110e576040517f08c379a0000000000000000000000000000000000000000000000000000000008152600401611105906126f9565b60405180910390fd5b600061111983610810565b90508073ffffffffffffffffffffffffffffffffffffffff168473ffffffffffffffffffffffffffffffffffffffff16148061115b575061115a8185610d8b565b5b8061119957508373ffffffffffffffffffffffffffffffffffffffff16611181846105ee565b73ffffffffffffffffffffffffffffffffffffffff16145b91505092915050565b8273ffffffffffffffffffffffffffffffffffffffff166111c282610810565b73ffffffffffffffffffffffffffffffffffffffff1614611218576040517f08c379a000000000000000000000000000000000000000000000000000000000815260040161120f90612659565b60405180910390fd5b600073ffffffffffffffffffffffffffffffffffffffff168273ffffffffffffffffffffffffffffffffffffffff161415611288576040517f08c379a000000000000000000000000000000000000000000000000000000000815260040161127f906126b9565b60405180910390fd5b6112938383836117ce565b61129e60008261100b565b6001600360008573ffffffffffffffffffffffffffffffffffffffff1673ffffffffffffffffffffffffffffffffffffffff16815260200190815260200160002060008282546112ee91906129d4565b925050819055506001600360008473ffffffffffffffffffffffffffffffffffffffff1673ffffffffffffffffffffffffffffffffffffffff1681526020019081526020016000206000828254611345919061294d565b92505081905550816002600083815260200190815260200160002060006101000a81548173ffffffffffffffffffffffffffffffffffffffff021916908373ffffffffffffffffffffffffffffffffffffffff160217905550808273ffffffffffffffffffffffffffffffffffffffff168473ffffffffffffffffffffffffffffffffffffffff167fddf252ad1be2c89b69c2b068fc378daa952ba7f163c4a11628f55a4df523b3ef60405160405180910390a46114048383836117d3565b505050565b6000600760009054906101000a900473ffffffffffffffffffffffffffffffffffffffff16905081600760006101000a81548173ffffffffffffffffffffffffffffffffffffffff021916908373ffffffffffffffffffffffffffffffffffffffff1602179055508173ffffffffffffffffffffffffffffffffffffffff168173ffffffffffffffffffffffffffffffffffffffff167f8be0079c531659141344cd1fd0a4f28419497f9722a3daafe3b4186f6b6457e060405160405180910390a35050565b600081600001549050919050565b6114e733826117d8565b600060405180608001604052806042815260200161320d60429139905061150e82826117f6565b5050565b61151c33826117d8565b600060405180608001604052806042815260200161324f60429139905061154382826117f6565b5050565b8173ffffffffffffffffffffffffffffffffffffffff168373ffffffffffffffffffffffffffffffffffffffff1614156115b6576040517f08c379a00000000000000000000000000000000000000000000000000000000081526004016115ad906126d9565b60405180910390fd5b80600560008573ffffffffffffffffffffffffffffffffffffffff1673ffffffffffffffffffffffffffffffffffffffff16815260200190815260200160002060008473ffffffffffffffffffffffffffffffffffffffff1673ffffffffffffffffffffffffffffffffffffffff16815260200190815260200160002060006101000a81548160ff0219169083151502179055508173ffffffffffffffffffffffffffffffffffffffff168373ffffffffffffffffffffffffffffffffffffffff167f17307eab39ab6107e8899845ad3d59bd9653f200f220920489ca2b5937696c31836040516116a791906125dc565b60405180910390a3505050565b6116bf8484846111a2565b6116cb8484848461186a565b61170a576040517f08c379a000000000000000000000000000000000000000000000000000000000815260040161170190612619565b60405180910390fd5b50505050565b606060405180602001604052806000815250905090565b606061173282610f97565b611771576040517f08c379a000000000000000000000000000000000000000000000000000000000815260040161176890612839565b60405180910390fd5b600061177b611710565b9050600081511161179b57604051806020016040528060008152506117c6565b806117a584611a01565b6040516020016117b6929190612528565b6040516020818303038152906040525b915050919050565b505050565b505050565b6117f2828260405180602001604052806000815250611bae565b5050565b6117ff82610f97565b61183e576040517f08c379a000000000000000000000000000000000000000000000000000000000815260040161183590612799565b60405180910390fd5b80600660008481526020019081526020016000209080519060200190611865929190611e06565b505050565b600061188b8473ffffffffffffffffffffffffffffffffffffffff16611c09565b156119f4578373ffffffffffffffffffffffffffffffffffffffff1663150b7a026118b4611003565b8786866040518563ffffffff1660e01b81526004016118d69493929190612567565b602060405180830381600087803b1580156118f057600080fd5b505af192505050801561192157506040513d601f19601f8201168201806040525081019061191e919061214a565b60015b6119a4573d8060008114611951576040519150601f19603f3d011682016040523d82523d6000602084013e611956565b606091505b5060008151141561199c576040517f08c379a000000000000000000000000000000000000000000000000000000000815260040161199390612619565b60405180910390fd5b805181602001fd5b63150b7a0260e01b7bffffffffffffffffffffffffffffffffffffffffffffffffffffffff1916817bffffffffffffffffffffffffffffffffffffffffffffffffffffffff1916149150506119f9565b600190505b949350505050565b60606000821415611a49576040518060400160405280600181526020017f30000000000000000000000000000000000000000000000000000000000000008152509050611ba9565b600082905060005b60008214611a7b578080611a6490612b21565b915050600a82611a7491906129a3565b9150611a51565b60008167ffffffffffffffff811115611abd577f4e487b7100000000000000000000000000000000000000000000000000000000600052604160045260246000fd5b6040519080825280601f01601f191660200182016040528015611aef5781602001600182028036833780820191505090505b5090505b60008514611ba257600182611b0891906129d4565b9150600a85611b179190612b6a565b6030611b23919061294d565b60f81b818381518110611b5f577f4e487b7100000000000000000000000000000000000000000000000000000000600052603260045260246000fd5b60200101907effffffffffffffffffffffffffffffffffffffffffffffffffffffffffffff1916908160001a905350600a85611b9b91906129a3565b9450611af3565b8093505050505b919050565b611bb88383611c2c565b611bc5600084848461186a565b611c04576040517f08c379a0000000000000000000000000000000000000000000000000000000008152600401611bfb90612619565b60405180910390fd5b505050565b6000808273ffffffffffffffffffffffffffffffffffffffff163b119050919050565b600073ffffffffffffffffffffffffffffffffffffffff168273ffffffffffffffffffffffffffffffffffffffff161415611c9c576040517f08c379a0000000000000000000000000000000000000000000000000000000008152600401611c93906127b9565b60405180910390fd5b611ca581610f97565b15611ce5576040517f08c379a0000000000000000000000000000000000000000000000000000000008152600401611cdc90612679565b60405180910390fd5b611cf1600083836117ce565b6001600360008473ffffffffffffffffffffffffffffffffffffffff1673ffffffffffffffffffffffffffffffffffffffff1681526020019081526020016000206000828254611d41919061294d565b92505081905550816002600083815260200190815260200160002060006101000a81548173ffffffffffffffffffffffffffffffffffffffff021916908373ffffffffffffffffffffffffffffffffffffffff160217905550808273ffffffffffffffffffffffffffffffffffffffff16600073ffffffffffffffffffffffffffffffffffffffff167fddf252ad1be2c89b69c2b068fc378daa952ba7f163c4a11628f55a4df523b3ef60405160405180910390a4611e02600083836117d3565b5050565b828054611e1290612abe565b90600052602060002090601f016020900481019282611e345760008555611e7b565b82601f10611e4d57805160ff1916838001178555611e7b565b82800160010185558215611e7b579182015b82811115611e7a578251825591602001919060010190611e5f565b5b509050611e889190611e8c565b5090565b5b80821115611ea5576000816000905550600101611e8d565b5090565b6000611ebc611eb7846128d9565b6128b4565b905082815260208101848484011115611ed457600080fd5b611edf848285612a7c565b509392505050565b600081359050611ef6816131b0565b92915050565b600081359050611f0b816131c7565b92915050565b600081359050611f20816131de565b92915050565b600081519050611f35816131de565b92915050565b600082601f830112611f4c57600080fd5b8135611f5c848260208601611ea9565b91505092915050565b600081359050611f74816131f5565b92915050565b600060208284031215611f8c57600080fd5b6000611f9a84828501611ee7565b91505092915050565b60008060408385031215611fb657600080fd5b6000611fc485828601611ee7565b9250506020611fd585828601611ee7565b9150509250929050565b600080600060608486031215611ff457600080fd5b600061200286828701611ee7565b935050602061201386828701611ee7565b925050604061202486828701611f65565b9150509250925092565b6000806000806080858703121561204457600080fd5b600061205287828801611ee7565b945050602061206387828801611ee7565b935050604061207487828801611f65565b925050606085013567ffffffffffffffff81111561209157600080fd5b61209d87828801611f3b565b91505092959194509250565b600080604083850312156120bc57600080fd5b60006120ca85828601611ee7565b92505060206120db85828601611efc565b9150509250929050565b600080604083850312156120f857600080fd5b600061210685828601611ee7565b925050602061211785828601611f65565b9150509250929050565b60006020828403121561213357600080fd5b600061214184828501611f11565b91505092915050565b60006020828403121561215c57600080fd5b600061216a84828501611f26565b91505092915050565b60006020828403121561218557600080fd5b600061219384828501611f65565b91505092915050565b6121a581612a08565b82525050565b6121b481612a1a565b82525050565b60006121c58261290a565b6121cf8185612920565b93506121df818560208601612a8b565b6121e881612c57565b840191505092915050565b60006121fe82612915565b6122088185612931565b9350612218818560208601612a8b565b61222181612c57565b840191505092915050565b600061223782612915565b6122418185612942565b9350612251818560208601612a8b565b80840191505092915050565b600061226a603283612931565b915061227582612c68565b604082019050919050565b600061228d602683612931565b915061229882612cb7565b604082019050919050565b60006122b0602583612931565b91506122bb82612d06565b604082019050919050565b60006122d3601c83612931565b91506122de82612d55565b602082019050919050565b60006122f6601d83612931565b915061230182612d7e565b602082019050919050565b6000612319602483612931565b915061232482612da7565b604082019050919050565b600061233c601983612931565b915061234782612df6565b602082019050919050565b600061235f602c83612931565b915061236a82612e1f565b604082019050919050565b6000612382602983612931565b915061238d82612e6e565b604082019050919050565b60006123a5603883612931565b91506123b082612ebd565b604082019050919050565b60006123c8600d83612931565b91506123d382612f0c565b602082019050919050565b60006123eb602983612931565b91506123f682612f35565b604082019050919050565b600061240e602e83612931565b915061241982612f84565b604082019050919050565b6000612431602083612931565b915061243c82612fd3565b602082019050919050565b6000612454603183612931565b915061245f82612ffc565b604082019050919050565b6000612477602c83612931565b91506124828261304b565b604082019050919050565b600061249a602083612931565b91506124a58261309a565b602082019050919050565b60006124bd602f83612931565b91506124c8826130c3565b604082019050919050565b60006124e0602183612931565b91506124eb82613112565b604082019050919050565b6000612503603183612931565b915061250e82613161565b604082019050919050565b61252281612a72565b82525050565b6000612534828561222c565b9150612540828461222c565b91508190509392505050565b6000602082019050612561600083018461219c565b92915050565b600060808201905061257c600083018761219c565b612589602083018661219c565b6125966040830185612519565b81810360608301526125a881846121ba565b905095945050505050565b60006040820190506125c8600083018561219c565b6125d56020830184612519565b9392505050565b60006020820190506125f160008301846121ab565b92915050565b6000602082019050818103600083015261261181846121f3565b905092915050565b600060208201905081810360008301526126328161225d565b9050919050565b6000602082019050818103600083015261265281612280565b9050919050565b60006020820190508181036000830152612672816122a3565b9050919050565b60006020820190508181036000830152612692816122c6565b9050919050565b600060208201905081810360008301526126b2816122e9565b9050919050565b600060208201905081810360008301526126d28161230c565b9050919050565b600060208201905081810360008301526126f28161232f565b9050919050565b6000602082019050818103600083015261271281612352565b9050919050565b6000602082019050818103600083015261273281612375565b9050919050565b6000602082019050818103600083015261275281612398565b9050919050565b60006020820190508181036000830152612772816123bb565b9050919050565b60006020820190508181036000830152612792816123de565b9050919050565b600060208201905081810360008301526127b281612401565b9050919050565b600060208201905081810360008301526127d281612424565b9050919050565b600060208201905081810360008301526127f281612447565b9050919050565b600060208201905081810360008301526128128161246a565b9050919050565b600060208201905081810360008301526128328161248d565b9050919050565b60006020820190508181036000830152612852816124b0565b9050919050565b60006020820190508181036000830152612872816124d3565b9050919050565b60006020820190508181036000830152612892816124f6565b9050919050565b60006020820190506128ae6000830184612519565b92915050565b60006128be6128cf565b90506128ca8282612af0565b919050565b6000604051905090565b600067ffffffffffffffff8211156128f4576128f3612c28565b5b6128fd82612c57565b9050602081019050919050565b600081519050919050565b600081519050919050565b600082825260208201905092915050565b600082825260208201905092915050565b600081905092915050565b600061295882612a72565b915061296383612a72565b9250827fffffffffffffffffffffffffffffffffffffffffffffffffffffffffffffffff0382111561299857612997612b9b565b5b828201905092915050565b60006129ae82612a72565b91506129b983612a72565b9250826129c9576129c8612bca565b5b828204905092915050565b60006129df82612a72565b91506129ea83612a72565b9250828210156129fd576129fc612b9b565b5b828203905092915050565b6000612a1382612a52565b9050919050565b60008115159050919050565b60007fffffffff0000000000000000000000000000000000000000000000000000000082169050919050565b600073ffffffffffffffffffffffffffffffffffffffff82169050919050565b6000819050919050565b82818337600083830152505050565b60005b83811015612aa9578082015181840152602081019050612a8e565b83811115612ab8576000848401525b50505050565b60006002820490506001821680612ad657607f821691505b60208210811415612aea57612ae9612bf9565b5b50919050565b612af982612c57565b810181811067ffffffffffffffff82111715612b1857612b17612c28565b5b80604052505050565b6000612b2c82612a72565b91507fffffffffffffffffffffffffffffffffffffffffffffffffffffffffffffffff821415612b5f57612b5e612b9b565b5b600182019050919050565b6000612b7582612a72565b9150612b8083612a72565b925082612b9057612b8f612bca565b5b828206905092915050565b7f4e487b7100000000000000000000000000000000000000000000000000000000600052601160045260246000fd5b7f4e487b7100000000000000000000000000000000000000000000000000000000600052601260045260246000fd5b7f4e487b7100000000000000000000000000000000000000000000000000000000600052602260045260246000fd5b7f4e487b7100000000000000000000000000000000000000000000000000000000600052604160045260246000fd5b6000601f19601f8301169050919050565b7f4552433732313a207472616e7366657220746f206e6f6e20455243373231526560008201527f63656976657220696d706c656d656e7465720000000000000000000000000000602082015250565b7f4f776e61626c653a206e6577206f776e657220697320746865207a65726f206160008201527f6464726573730000000000000000000000000000000000000000000000000000602082015250565b7f4552433732313a207472616e736665722066726f6d20696e636f72726563742060008201527f6f776e6572000000000000000000000000000000000000000000000000000000602082015250565b7f4552433732313a20746f6b656e20616c7265616479206d696e74656400000000600082015250565b7f7061737365732061726520736f6c64206f757420736f7272792062726f000000600082015250565b7f4552433732313a207472616e7366657220746f20746865207a65726f2061646460008201527f7265737300000000000000000000000000000000000000000000000000000000602082015250565b7f4552433732313a20617070726f766520746f2063616c6c657200000000000000600082015250565b7f4552433732313a206f70657261746f7220717565727920666f72206e6f6e657860008201527f697374656e7420746f6b656e0000000000000000000000000000000000000000602082015250565b7f4552433732313a2061646472657373207a65726f206973206e6f74206120766160008201527f6c6964206f776e65720000000000000000000000000000000000000000000000602082015250565b7f4552433732313a20617070726f76652063616c6c6572206973206e6f74206f7760008201527f6e6572206e6f7220617070726f76656420666f7220616c6c0000000000000000602082015250565b7f70617920666f72206e6f6e6f6700000000000000000000000000000000000000600082015250565b7f4552433732313a206f776e657220717565727920666f72206e6f6e657869737460008201527f656e7420746f6b656e0000000000000000000000000000000000000000000000602082015250565b7f45524337323155524953746f726167653a2055524920736574206f66206e6f6e60008201527f6578697374656e7420746f6b656e000000000000000000000000000000000000602082015250565b7f4552433732313a206d696e7420746f20746865207a65726f2061646472657373600082015250565b7f45524337323155524953746f726167653a2055524920717565727920666f722060008201527f6e6f6e6578697374656e7420746f6b656e000000000000000000000000000000602082015250565b7f4552433732313a20617070726f76656420717565727920666f72206e6f6e657860008201527f697374656e7420746f6b656e0000000000000000000000000000000000000000602082015250565b7f4f776e61626c653a2063616c6c6572206973206e6f7420746865206f776e6572600082015250565b7f4552433732314d657461646174613a2055524920717565727920666f72206e6f60008201527f6e6578697374656e7420746f6b656e0000000000000000000000000000000000602082015250565b7f4552433732313a20617070726f76616c20746f2063757272656e74206f776e6560008201527f7200000000000000000000000000000000000000000000000000000000000000602082015250565b7f4552433732313a207472616e736665722063616c6c6572206973206e6f74206f60008201527f776e6572206e6f7220617070726f766564000000000000000000000000000000602082015250565b6131b981612a08565b81146131c457600080fd5b50565b6131d081612a1a565b81146131db57600080fd5b50565b6131e781612a26565b81146131f257600080fd5b50565b6131fe81612a72565b811461320957600080fd5b5056fe697066733a2f2f6261666b726569686a79686371667a333534346b6a656d3535656c3366613377687466686f61676c3565686362353634656d7364336f6364793771697066733a2f2f6261666b7265696132707a6d6a7a657a636967747136686c626e726d3471746f68377a34756c66727474656c7175667361646c7432767768717734a264697066735822122068ea6815c1075233eeecbbe8f682ecd973f88c452b5c6e8de9d935ffcd87c5dc64736f6c63430008040033",
  "linkReferences": {},
  "deployedLinkReferences": {}
}