{
  "_format": "hh-sol-artifact-1",
  "contractName": "CTBPass",
  "sourceName": "contracts/CTBPass.sol",
  "abi": [
    {
      "inputs": [],
      "stateMutability": "nonpayable",
      "type": "constructor"
    },
    {
      "anonymous": false,
      "inputs": [
        {
          "indexed": true,
          "internalType": "address",
          "name": "owner",
          "type": "address"
        },
        {
          "indexed": true,
          "internalType": "address",
          "name": "approved",
          "type": "address"
        },
        {
          "indexed": true,
          "internalType": "uint256",
          "name": "tokenId",
          "type": "uint256"
        }
      ],
      "name": "Approval",
      "type": "event"
    },
    {
      "anonymous": false,
      "inputs": [
        {
          "indexed": true,
          "internalType": "address",
          "name": "owner",
          "type": "address"
        },
        {
          "indexed": true,
          "internalType": "address",
          "name": "operator",
          "type": "address"
        },
        {
          "indexed": false,
          "internalType": "bool",
          "name": "approved",
          "type": "bool"
        }
      ],
      "name": "ApprovalForAll",
      "type": "event"
    },
    {
      "anonymous": false,
      "inputs": [
        {
          "indexed": false,
          "internalType": "address",
          "name": "sender",
          "type": "address"
        },
        {
          "indexed": false,
          "internalType": "uint256",
          "name": "tokenId",
          "type": "uint256"
        }
      ],
      "name": "NewPassMinted",
      "type": "event"
    },
    {
      "anonymous": false,
      "inputs": [
        {
          "indexed": true,
          "internalType": "address",
          "name": "previousOwner",
          "type": "address"
        },
        {
          "indexed": true,
          "internalType": "address",
          "name": "newOwner",
          "type": "address"
        }
      ],
      "name": "OwnershipTransferred",
      "type": "event"
    },
    {
      "anonymous": false,
      "inputs": [
        {
          "indexed": true,
          "internalType": "address",
          "name": "from",
          "type": "address"
        },
        {
          "indexed": true,
          "internalType": "address",
          "name": "to",
          "type": "address"
        },
        {
          "indexed": true,
          "internalType": "uint256",
          "name": "tokenId",
          "type": "uint256"
        }
      ],
      "name": "Transfer",
      "type": "event"
    },
    {
      "inputs": [],
      "name": "MINT_LIMIT",
      "outputs": [
        {
          "internalType": "uint256",
          "name": "",
          "type": "uint256"
        }
      ],
      "stateMutability": "view",
      "type": "function"
    },
    {
      "inputs": [],
      "name": "OG_LIMIT",
      "outputs": [
        {
          "internalType": "uint256",
          "name": "",
          "type": "uint256"
        }
      ],
      "stateMutability": "view",
      "type": "function"
    },
    {
      "inputs": [
        {
          "internalType": "address",
          "name": "to",
          "type": "address"
        },
        {
          "internalType": "uint256",
          "name": "tokenId",
          "type": "uint256"
        }
      ],
      "name": "approve",
      "outputs": [],
      "stateMutability": "nonpayable",
      "type": "function"
    },
    {
      "inputs": [
        {
          "internalType": "address",
          "name": "owner",
          "type": "address"
        }
      ],
      "name": "balanceOf",
      "outputs": [
        {
          "internalType": "uint256",
          "name": "",
          "type": "uint256"
        }
      ],
      "stateMutability": "view",
      "type": "function"
    },
    {
      "inputs": [],
      "name": "checkMembershipStatus",
      "outputs": [
        {
          "internalType": "uint8",
          "name": "possession",
          "type": "uint8"
        }
      ],
      "stateMutability": "view",
      "type": "function"
    },
    {
      "inputs": [
        {
          "internalType": "uint256",
          "name": "tokenId",
          "type": "uint256"
        }
      ],
      "name": "getApproved",
      "outputs": [
        {
          "internalType": "address",
          "name": "",
          "type": "address"
        }
      ],
      "stateMutability": "view",
      "type": "function"
    },
    {
      "inputs": [
        {
          "internalType": "address",
          "name": "owner",
          "type": "address"
        },
        {
          "internalType": "address",
          "name": "operator",
          "type": "address"
        }
      ],
      "name": "isApprovedForAll",
      "outputs": [
        {
          "internalType": "bool",
          "name": "",
          "type": "bool"
        }
      ],
      "stateMutability": "view",
      "type": "function"
    },
    {
      "inputs": [],
      "name": "mintThePass",
      "outputs": [],
      "stateMutability": "payable",
      "type": "function"
    },
    {
      "inputs": [],
      "name": "name",
      "outputs": [
        {
          "internalType": "string",
          "name": "",
          "type": "string"
        }
      ],
      "stateMutability": "view",
      "type": "function"
    },
    {
      "inputs": [
        {
          "internalType": "address",
          "name": "",
          "type": "address"
        }
      ],
      "name": "nftHolders",
      "outputs": [
        {
          "internalType": "uint256",
          "name": "",
          "type": "uint256"
        }
      ],
      "stateMutability": "view",
      "type": "function"
    },
    {
      "inputs": [],
      "name": "owner",
      "outputs": [
        {
          "internalType": "address",
          "name": "",
          "type": "address"
        }
      ],
      "stateMutability": "view",
      "type": "function"
    },
    {
      "inputs": [
        {
          "internalType": "uint256",
          "name": "tokenId",
          "type": "uint256"
        }
      ],
      "name": "ownerOf",
      "outputs": [
        {
          "internalType": "address",
          "name": "",
          "type": "address"
        }
      ],
      "stateMutability": "view",
      "type": "function"
    },
    {
      "inputs": [],
      "name": "renounceOwnership",
      "outputs": [],
      "stateMutability": "nonpayable",
      "type": "function"
    },
    {
      "inputs": [
        {
          "internalType": "address",
          "name": "from",
          "type": "address"
        },
        {
          "internalType": "address",
          "name": "to",
          "type": "address"
        },
        {
          "internalType": "uint256",
          "name": "tokenId",
          "type": "uint256"
        }
      ],
      "name": "safeTransferFrom",
      "outputs": [],
      "stateMutability": "nonpayable",
      "type": "function"
    },
    {
      "inputs": [
        {
          "internalType": "address",
          "name": "from",
          "type": "address"
        },
        {
          "internalType": "address",
          "name": "to",
          "type": "address"
        },
        {
          "internalType": "uint256",
          "name": "tokenId",
          "type": "uint256"
        },
        {
          "internalType": "bytes",
          "name": "data",
          "type": "bytes"
        }
      ],
      "name": "safeTransferFrom",
      "outputs": [],
      "stateMutability": "nonpayable",
      "type": "function"
    },
    {
      "inputs": [
        {
          "internalType": "address",
          "name": "operator",
          "type": "address"
        },
        {
          "internalType": "bool",
          "name": "approved",
          "type": "bool"
        }
      ],
      "name": "setApprovalForAll",
      "outputs": [],
      "stateMutability": "nonpayable",
      "type": "function"
    },
    {
      "inputs": [
        {
          "internalType": "bytes4",
          "name": "interfaceId",
          "type": "bytes4"
        }
      ],
      "name": "supportsInterface",
      "outputs": [
        {
          "internalType": "bool",
          "name": "",
          "type": "bool"
        }
      ],
      "stateMutability": "view",
      "type": "function"
    },
    {
      "inputs": [],
      "name": "symbol",
      "outputs": [
        {
          "internalType": "string",
          "name": "",
          "type": "string"
        }
      ],
      "stateMutability": "view",
      "type": "function"
    },
    {
      "inputs": [
        {
          "internalType": "uint256",
          "name": "tokenId",
          "type": "uint256"
        }
      ],
      "name": "tokenURI",
      "outputs": [
        {
          "internalType": "string",
          "name": "",
          "type": "string"
        }
      ],
      "stateMutability": "view",
      "type": "function"
    },
    {
      "inputs": [
        {
          "internalType": "address",
          "name": "from",
          "type": "address"
        },
        {
          "internalType": "address",
          "name": "to",
          "type": "address"
        },
        {
          "internalType": "uint256",
          "name": "tokenId",
          "type": "uint256"
        }
      ],
      "name": "transferFrom",
      "outputs": [],
      "stateMutability": "nonpayable",
      "type": "function"
    },
    {
      "inputs": [
        {
          "internalType": "address",
          "name": "newOwner",
          "type": "address"
        }
      ],
      "name": "transferOwnership",
      "outputs": [],
      "stateMutability": "nonpayable",
      "type": "function"
    },
    {
      "inputs": [],
      "name": "withdraw",
      "outputs": [],
      "stateMutability": "nonpayable",
      "type": "function"
    }
  ],
  "bytecode": "0x60806040523480156200001157600080fd5b506040518060400160405280601b81526020017f436f6f6b2074686520426f6f6b732050617373202d20746573743400000000008152506040518060400160405280600481526020017f4354425000000000000000000000000000000000000000000000000000000000815250816000908051906020019062000096929190620001d3565b508060019080519060200190620000af929190620001d3565b505050620000d2620000c6620000ef60201b60201c565b620000f760201b60201c565b620000e96008620001bd60201b620011391760201c565b620002e8565b600033905090565b6000600760009054906101000a900473ffffffffffffffffffffffffffffffffffffffff16905081600760006101000a81548173ffffffffffffffffffffffffffffffffffffffff021916908373ffffffffffffffffffffffffffffffffffffffff1602179055508173ffffffffffffffffffffffffffffffffffffffff168173ffffffffffffffffffffffffffffffffffffffff167f8be0079c531659141344cd1fd0a4f28419497f9722a3daafe3b4186f6b6457e060405160405180910390a35050565b6001816000016000828254019250508190555050565b828054620001e19062000283565b90600052602060002090601f01602090048101928262000205576000855562000251565b82601f106200022057805160ff191683800117855562000251565b8280016001018555821562000251579182015b828111156200025057825182559160200191906001019062000233565b5b50905062000260919062000264565b5090565b5b808211156200027f57600081600090555060010162000265565b5090565b600060028204905060018216806200029c57607f821691505b60208210811415620002b357620002b2620002b9565b5b50919050565b7f4e487b7100000000000000000000000000000000000000000000000000000000600052602260045260246000fd5b61351f80620002f86000396000f3fe6080604052600436106101355760003560e01c806365610022116100ab57806395d89b411161006f57806395d89b41146103f5578063a22cb46514610420578063b88d4fde14610449578063c87b56dd14610472578063e985e9c5146104af578063f2fde38b146104ec57610135565b8063656100221461030e57806370a0823114610339578063715018a6146103765780637df124a11461038d5780638da5cb5b146103ca57610135565b8063229f8bbc116100fd578063229f8bbc1461023357806323b872dd1461023d5780633ccfd60b1461026657806342842e0e1461027d578063631123ab146102a65780636352211e146102d157610135565b806301ffc9a71461013a578063027752401461017757806306fdde03146101a2578063081812fc146101cd578063095ea7b31461020a575b600080fd5b34801561014657600080fd5b50610161600480360381019061015c9190612343565b610515565b60405161016e919061280d565b60405180910390f35b34801561018357600080fd5b5061018c6105f7565b6040516101999190612aca565b60405180910390f35b3480156101ae57600080fd5b506101b76105fc565b6040516101c49190612828565b60405180910390f35b3480156101d957600080fd5b506101f460048036038101906101ef9190612395565b61068e565b604051610201919061277d565b60405180910390f35b34801561021657600080fd5b50610231600480360381019061022c9190612307565b610713565b005b61023b61082b565b005b34801561024957600080fd5b50610264600480360381019061025f9190612201565b610972565b005b34801561027257600080fd5b5061027b6109d2565b005b34801561028957600080fd5b506102a4600480360381019061029f9190612201565b610a97565b005b3480156102b257600080fd5b506102bb610ab7565b6040516102c89190612aca565b60405180910390f35b3480156102dd57600080fd5b506102f860048036038101906102f39190612395565b610abc565b604051610305919061277d565b60405180910390f35b34801561031a57600080fd5b50610323610b6e565b6040516103309190612ae5565b60405180910390f35b34801561034557600080fd5b50610360600480360381019061035b919061219c565b610bcf565b60405161036d9190612aca565b60405180910390f35b34801561038257600080fd5b5061038b610c87565b005b34801561039957600080fd5b506103b460048036038101906103af919061219c565b610d0f565b6040516103c19190612aca565b60405180910390f35b3480156103d657600080fd5b506103df610d27565b6040516103ec919061277d565b60405180910390f35b34801561040157600080fd5b5061040a610d51565b6040516104179190612828565b60405180910390f35b34801561042c57600080fd5b50610447600480360381019061044291906122cb565b610de3565b005b34801561045557600080fd5b50610470600480360381019061046b9190612250565b610df9565b005b34801561047e57600080fd5b5061049960048036038101906104949190612395565b610e5b565b6040516104a69190612828565b60405180910390f35b3480156104bb57600080fd5b506104d660048036038101906104d191906121c5565b610fad565b6040516104e3919061280d565b60405180910390f35b3480156104f857600080fd5b50610513600480360381019061050e919061219c565b611041565b005b60007f80ac58cd000000000000000000000000000000000000000000000000000000007bffffffffffffffffffffffffffffffffffffffffffffffffffffffff1916827bffffffffffffffffffffffffffffffffffffffffffffffffffffffff191614806105e057507f5b5e139f000000000000000000000000000000000000000000000000000000007bffffffffffffffffffffffffffffffffffffffffffffffffffffffff1916827bffffffffffffffffffffffffffffffffffffffffffffffffffffffff1916145b806105f057506105ef8261114f565b5b9050919050565b600a81565b60606000805461060b90612d17565b80601f016020809104026020016040519081016040528092919081815260200182805461063790612d17565b80156106845780601f1061065957610100808354040283529160200191610684565b820191906000526020600020905b81548152906001019060200180831161066757829003601f168201915b5050505050905090565b6000610699826111b9565b6106d8576040517f08c379a00000000000000000000000000000000000000000000000000000000081526004016106cf90612a2a565b60405180910390fd5b6004600083815260200190815260200160002060009054906101000a900473ffffffffffffffffffffffffffffffffffffffff169050919050565b600061071e82610abc565b90508073ffffffffffffffffffffffffffffffffffffffff168373ffffffffffffffffffffffffffffffffffffffff16141561078f576040517f08c379a000000000000000000000000000000000000000000000000000000000815260040161078690612a8a565b60405180910390fd5b8073ffffffffffffffffffffffffffffffffffffffff166107ae611225565b73ffffffffffffffffffffffffffffffffffffffff1614806107dd57506107dc816107d7611225565b610fad565b5b61081c576040517f08c379a00000000000000000000000000000000000000000000000000000000081526004016108139061296a565b60405180910390fd5b610826838361122d565b505050565b600061083760086112e6565b9050600a81111561087d576040517f08c379a0000000000000000000000000000000000000000000000000000000008152600401610874906128ca565b60405180910390fd5b600281116108935761088e816112f4565b6108e8565b670de0b6b3a76400003410156108de576040517f08c379a00000000000000000000000000000000000000000000000000000000081526004016108d59061298a565b60405180910390fd5b6108e781611329565b5b80600960003373ffffffffffffffffffffffffffffffffffffffff1673ffffffffffffffffffffffffffffffffffffffff168152602001908152602001600020819055507f27a1a3467613fd4d11e7388644c0e1af0fecbbd416b5710aebbea9f19f1d97cc338260405161095d9291906127e4565b60405180910390a161096f6008611139565b50565b61098361097d611225565b8261135e565b6109c2576040517f08c379a00000000000000000000000000000000000000000000000000000000081526004016109b990612aaa565b60405180910390fd5b6109cd83838361143c565b505050565b6109da611225565b73ffffffffffffffffffffffffffffffffffffffff166109f8610d27565b73ffffffffffffffffffffffffffffffffffffffff1614610a4e576040517f08c379a0000000000000000000000000000000000000000000000000000000008152600401610a4590612a4a565b60405180910390fd5b3373ffffffffffffffffffffffffffffffffffffffff166108fc479081150290604051600060405180830381858888f19350505050158015610a94573d6000803e3d6000fd5b50565b610ab283838360405180602001604052806000815250610df9565b505050565b600281565b6000806002600084815260200190815260200160002060009054906101000a900473ffffffffffffffffffffffffffffffffffffffff169050600073ffffffffffffffffffffffffffffffffffffffff168173ffffffffffffffffffffffffffffffffffffffff161415610b65576040517f08c379a0000000000000000000000000000000000000000000000000000000008152600401610b5c906129aa565b60405180910390fd5b80915050919050565b600080600960003373ffffffffffffffffffffffffffffffffffffffff1673ffffffffffffffffffffffffffffffffffffffff1681526020019081526020016000205490506000811115610bc6576001915050610bcc565b60029150505b90565b60008073ffffffffffffffffffffffffffffffffffffffff168273ffffffffffffffffffffffffffffffffffffffff161415610c40576040517f08c379a0000000000000000000000000000000000000000000000000000000008152600401610c379061294a565b60405180910390fd5b600360008373ffffffffffffffffffffffffffffffffffffffff1673ffffffffffffffffffffffffffffffffffffffff168152602001908152602001600020549050919050565b610c8f611225565b73ffffffffffffffffffffffffffffffffffffffff16610cad610d27565b73ffffffffffffffffffffffffffffffffffffffff1614610d03576040517f08c379a0000000000000000000000000000000000000000000000000000000008152600401610cfa90612a4a565b60405180910390fd5b610d0d60006116a3565b565b60096020528060005260406000206000915090505481565b6000600760009054906101000a900473ffffffffffffffffffffffffffffffffffffffff16905090565b606060018054610d6090612d17565b80601f0160208091040260200160405190810160405280929190818152602001828054610d8c90612d17565b8015610dd95780601f10610dae57610100808354040283529160200191610dd9565b820191906000526020600020905b815481529060010190602001808311610dbc57829003601f168201915b5050505050905090565b610df5610dee611225565b8383611769565b5050565b610e0a610e04611225565b8361135e565b610e49576040517f08c379a0000000000000000000000000000000000000000000000000000000008152600401610e4090612aaa565b60405180910390fd5b610e55848484846118d6565b50505050565b6060610e66826111b9565b610ea5576040517f08c379a0000000000000000000000000000000000000000000000000000000008152600401610e9c90612a0a565b60405180910390fd5b6000600660008481526020019081526020016000208054610ec590612d17565b80601f0160208091040260200160405190810160405280929190818152602001828054610ef190612d17565b8015610f3e5780601f10610f1357610100808354040283529160200191610f3e565b820191906000526020600020905b815481529060010190602001808311610f2157829003601f168201915b505050505090506000610f4f611932565b9050600081511415610f65578192505050610fa8565b600082511115610f9a578082604051602001610f82929190612759565b60405160208183030381529060405292505050610fa8565b610fa384611949565b925050505b919050565b6000600560008473ffffffffffffffffffffffffffffffffffffffff1673ffffffffffffffffffffffffffffffffffffffff16815260200190815260200160002060008373ffffffffffffffffffffffffffffffffffffffff1673ffffffffffffffffffffffffffffffffffffffff16815260200190815260200160002060009054906101000a900460ff16905092915050565b611049611225565b73ffffffffffffffffffffffffffffffffffffffff16611067610d27565b73ffffffffffffffffffffffffffffffffffffffff16146110bd576040517f08c379a00000000000000000000000000000000000000000000000000000000081526004016110b490612a4a565b60405180910390fd5b600073ffffffffffffffffffffffffffffffffffffffff168173ffffffffffffffffffffffffffffffffffffffff16141561112d576040517f08c379a00000000000000000000000000000000000000000000000000000000081526004016111249061286a565b60405180910390fd5b611136816116a3565b50565b6001816000016000828254019250508190555050565b60007f01ffc9a7000000000000000000000000000000000000000000000000000000007bffffffffffffffffffffffffffffffffffffffffffffffffffffffff1916827bffffffffffffffffffffffffffffffffffffffffffffffffffffffff1916149050919050565b60008073ffffffffffffffffffffffffffffffffffffffff166002600084815260200190815260200160002060009054906101000a900473ffffffffffffffffffffffffffffffffffffffff1673ffffffffffffffffffffffffffffffffffffffff1614159050919050565b600033905090565b816004600083815260200190815260200160002060006101000a81548173ffffffffffffffffffffffffffffffffffffffff021916908373ffffffffffffffffffffffffffffffffffffffff160217905550808273ffffffffffffffffffffffffffffffffffffffff166112a083610abc565b73ffffffffffffffffffffffffffffffffffffffff167f8c5be1e5ebec7d5bd14f71427d1e84f3dd0314c0f7b2291e5b200ac8c7c3b92560405160405180910390a45050565b600081600001549050919050565b6112fe33826119f0565b60006040518060800160405280604281526020016134666042913990506113258282611a0e565b5050565b61133333826119f0565b60006040518060800160405280604281526020016134a860429139905061135a8282611a0e565b5050565b6000611369826111b9565b6113a8576040517f08c379a000000000000000000000000000000000000000000000000000000000815260040161139f9061292a565b60405180910390fd5b60006113b383610abc565b90508073ffffffffffffffffffffffffffffffffffffffff168473ffffffffffffffffffffffffffffffffffffffff1614806113f557506113f48185610fad565b5b8061143357508373ffffffffffffffffffffffffffffffffffffffff1661141b8461068e565b73ffffffffffffffffffffffffffffffffffffffff16145b91505092915050565b8273ffffffffffffffffffffffffffffffffffffffff1661145c82610abc565b73ffffffffffffffffffffffffffffffffffffffff16146114b2576040517f08c379a00000000000000000000000000000000000000000000000000000000081526004016114a99061288a565b60405180910390fd5b600073ffffffffffffffffffffffffffffffffffffffff168273ffffffffffffffffffffffffffffffffffffffff161415611522576040517f08c379a0000000000000000000000000000000000000000000000000000000008152600401611519906128ea565b60405180910390fd5b61152d838383611a82565b61153860008261122d565b6001600360008573ffffffffffffffffffffffffffffffffffffffff1673ffffffffffffffffffffffffffffffffffffffff16815260200190815260200160002060008282546115889190612c20565b925050819055506001600360008473ffffffffffffffffffffffffffffffffffffffff1673ffffffffffffffffffffffffffffffffffffffff16815260200190815260200160002060008282546115df9190612b99565b92505081905550816002600083815260200190815260200160002060006101000a81548173ffffffffffffffffffffffffffffffffffffffff021916908373ffffffffffffffffffffffffffffffffffffffff160217905550808273ffffffffffffffffffffffffffffffffffffffff168473ffffffffffffffffffffffffffffffffffffffff167fddf252ad1be2c89b69c2b068fc378daa952ba7f163c4a11628f55a4df523b3ef60405160405180910390a461169e838383611a87565b505050565b6000600760009054906101000a900473ffffffffffffffffffffffffffffffffffffffff16905081600760006101000a81548173ffffffffffffffffffffffffffffffffffffffff021916908373ffffffffffffffffffffffffffffffffffffffff1602179055508173ffffffffffffffffffffffffffffffffffffffff168173ffffffffffffffffffffffffffffffffffffffff167f8be0079c531659141344cd1fd0a4f28419497f9722a3daafe3b4186f6b6457e060405160405180910390a35050565b8173ffffffffffffffffffffffffffffffffffffffff168373ffffffffffffffffffffffffffffffffffffffff1614156117d8576040517f08c379a00000000000000000000000000000000000000000000000000000000081526004016117cf9061290a565b60405180910390fd5b80600560008573ffffffffffffffffffffffffffffffffffffffff1673ffffffffffffffffffffffffffffffffffffffff16815260200190815260200160002060008473ffffffffffffffffffffffffffffffffffffffff1673ffffffffffffffffffffffffffffffffffffffff16815260200190815260200160002060006101000a81548160ff0219169083151502179055508173ffffffffffffffffffffffffffffffffffffffff168373ffffffffffffffffffffffffffffffffffffffff167f17307eab39ab6107e8899845ad3d59bd9653f200f220920489ca2b5937696c31836040516118c9919061280d565b60405180910390a3505050565b6118e184848461143c565b6118ed84848484611a8c565b61192c576040517f08c379a00000000000000000000000000000000000000000000000000000000081526004016119239061284a565b60405180910390fd5b50505050565b606060405180602001604052806000815250905090565b6060611954826111b9565b611993576040517f08c379a000000000000000000000000000000000000000000000000000000000815260040161198a90612a6a565b60405180910390fd5b600061199d611932565b905060008151116119bd57604051806020016040528060008152506119e8565b806119c784611c23565b6040516020016119d8929190612759565b6040516020818303038152906040525b915050919050565b611a0a828260405180602001604052806000815250611dd0565b5050565b611a17826111b9565b611a56576040517f08c379a0000000000000000000000000000000000000000000000000000000008152600401611a4d906129ca565b60405180910390fd5b80600660008481526020019081526020016000209080519060200190611a7d929190612028565b505050565b505050565b505050565b6000611aad8473ffffffffffffffffffffffffffffffffffffffff16611e2b565b15611c16578373ffffffffffffffffffffffffffffffffffffffff1663150b7a02611ad6611225565b8786866040518563ffffffff1660e01b8152600401611af89493929190612798565b602060405180830381600087803b158015611b1257600080fd5b505af1925050508015611b4357506040513d601f19601f82011682018060405250810190611b40919061236c565b60015b611bc6573d8060008114611b73576040519150601f19603f3d011682016040523d82523d6000602084013e611b78565b606091505b50600081511415611bbe576040517f08c379a0000000000000000000000000000000000000000000000000000000008152600401611bb59061284a565b60405180910390fd5b805181602001fd5b63150b7a0260e01b7bffffffffffffffffffffffffffffffffffffffffffffffffffffffff1916817bffffffffffffffffffffffffffffffffffffffffffffffffffffffff191614915050611c1b565b600190505b949350505050565b60606000821415611c6b576040518060400160405280600181526020017f30000000000000000000000000000000000000000000000000000000000000008152509050611dcb565b600082905060005b60008214611c9d578080611c8690612d7a565b915050600a82611c969190612bef565b9150611c73565b60008167ffffffffffffffff811115611cdf577f4e487b7100000000000000000000000000000000000000000000000000000000600052604160045260246000fd5b6040519080825280601f01601f191660200182016040528015611d115781602001600182028036833780820191505090505b5090505b60008514611dc457600182611d2a9190612c20565b9150600a85611d399190612dc3565b6030611d459190612b99565b60f81b818381518110611d81577f4e487b7100000000000000000000000000000000000000000000000000000000600052603260045260246000fd5b60200101907effffffffffffffffffffffffffffffffffffffffffffffffffffffffffffff1916908160001a905350600a85611dbd9190612bef565b9450611d15565b8093505050505b919050565b611dda8383611e4e565b611de76000848484611a8c565b611e26576040517f08c379a0000000000000000000000000000000000000000000000000000000008152600401611e1d9061284a565b60405180910390fd5b505050565b6000808273ffffffffffffffffffffffffffffffffffffffff163b119050919050565b600073ffffffffffffffffffffffffffffffffffffffff168273ffffffffffffffffffffffffffffffffffffffff161415611ebe576040517f08c379a0000000000000000000000000000000000000000000000000000000008152600401611eb5906129ea565b60405180910390fd5b611ec7816111b9565b15611f07576040517f08c379a0000000000000000000000000000000000000000000000000000000008152600401611efe906128aa565b60405180910390fd5b611f1360008383611a82565b6001600360008473ffffffffffffffffffffffffffffffffffffffff1673ffffffffffffffffffffffffffffffffffffffff1681526020019081526020016000206000828254611f639190612b99565b92505081905550816002600083815260200190815260200160002060006101000a81548173ffffffffffffffffffffffffffffffffffffffff021916908373ffffffffffffffffffffffffffffffffffffffff160217905550808273ffffffffffffffffffffffffffffffffffffffff16600073ffffffffffffffffffffffffffffffffffffffff167fddf252ad1be2c89b69c2b068fc378daa952ba7f163c4a11628f55a4df523b3ef60405160405180910390a461202460008383611a87565b5050565b82805461203490612d17565b90600052602060002090601f016020900481019282612056576000855561209d565b82601f1061206f57805160ff191683800117855561209d565b8280016001018555821561209d579182015b8281111561209c578251825591602001919060010190612081565b5b5090506120aa91906120ae565b5090565b5b808211156120c75760008160009055506001016120af565b5090565b60006120de6120d984612b25565b612b00565b9050828152602081018484840111156120f657600080fd5b612101848285612cd5565b509392505050565b60008135905061211881613409565b92915050565b60008135905061212d81613420565b92915050565b60008135905061214281613437565b92915050565b60008151905061215781613437565b92915050565b600082601f83011261216e57600080fd5b813561217e8482602086016120cb565b91505092915050565b6000813590506121968161344e565b92915050565b6000602082840312156121ae57600080fd5b60006121bc84828501612109565b91505092915050565b600080604083850312156121d857600080fd5b60006121e685828601612109565b92505060206121f785828601612109565b9150509250929050565b60008060006060848603121561221657600080fd5b600061222486828701612109565b935050602061223586828701612109565b925050604061224686828701612187565b9150509250925092565b6000806000806080858703121561226657600080fd5b600061227487828801612109565b945050602061228587828801612109565b935050604061229687828801612187565b925050606085013567ffffffffffffffff8111156122b357600080fd5b6122bf8782880161215d565b91505092959194509250565b600080604083850312156122de57600080fd5b60006122ec85828601612109565b92505060206122fd8582860161211e565b9150509250929050565b6000806040838503121561231a57600080fd5b600061232885828601612109565b925050602061233985828601612187565b9150509250929050565b60006020828403121561235557600080fd5b600061236384828501612133565b91505092915050565b60006020828403121561237e57600080fd5b600061238c84828501612148565b91505092915050565b6000602082840312156123a757600080fd5b60006123b584828501612187565b91505092915050565b6123c781612c54565b82525050565b6123d681612c66565b82525050565b60006123e782612b56565b6123f18185612b6c565b9350612401818560208601612ce4565b61240a81612eb0565b840191505092915050565b600061242082612b61565b61242a8185612b7d565b935061243a818560208601612ce4565b61244381612eb0565b840191505092915050565b600061245982612b61565b6124638185612b8e565b9350612473818560208601612ce4565b80840191505092915050565b600061248c603283612b7d565b915061249782612ec1565b604082019050919050565b60006124af602683612b7d565b91506124ba82612f10565b604082019050919050565b60006124d2602583612b7d565b91506124dd82612f5f565b604082019050919050565b60006124f5601c83612b7d565b915061250082612fae565b602082019050919050565b6000612518601d83612b7d565b915061252382612fd7565b602082019050919050565b600061253b602483612b7d565b915061254682613000565b604082019050919050565b600061255e601983612b7d565b91506125698261304f565b602082019050919050565b6000612581602c83612b7d565b915061258c82613078565b604082019050919050565b60006125a4602983612b7d565b91506125af826130c7565b604082019050919050565b60006125c7603883612b7d565b91506125d282613116565b604082019050919050565b60006125ea600d83612b7d565b91506125f582613165565b602082019050919050565b600061260d602983612b7d565b91506126188261318e565b604082019050919050565b6000612630602e83612b7d565b915061263b826131dd565b604082019050919050565b6000612653602083612b7d565b915061265e8261322c565b602082019050919050565b6000612676603183612b7d565b915061268182613255565b604082019050919050565b6000612699602c83612b7d565b91506126a4826132a4565b604082019050919050565b60006126bc602083612b7d565b91506126c7826132f3565b602082019050919050565b60006126df602f83612b7d565b91506126ea8261331c565b604082019050919050565b6000612702602183612b7d565b915061270d8261336b565b604082019050919050565b6000612725603183612b7d565b9150612730826133ba565b604082019050919050565b61274481612cbe565b82525050565b61275381612cc8565b82525050565b6000612765828561244e565b9150612771828461244e565b91508190509392505050565b600060208201905061279260008301846123be565b92915050565b60006080820190506127ad60008301876123be565b6127ba60208301866123be565b6127c7604083018561273b565b81810360608301526127d981846123dc565b905095945050505050565b60006040820190506127f960008301856123be565b612806602083018461273b565b9392505050565b600060208201905061282260008301846123cd565b92915050565b600060208201905081810360008301526128428184612415565b905092915050565b600060208201905081810360008301526128638161247f565b9050919050565b60006020820190508181036000830152612883816124a2565b9050919050565b600060208201905081810360008301526128a3816124c5565b9050919050565b600060208201905081810360008301526128c3816124e8565b9050919050565b600060208201905081810360008301526128e38161250b565b9050919050565b600060208201905081810360008301526129038161252e565b9050919050565b6000602082019050818103600083015261292381612551565b9050919050565b6000602082019050818103600083015261294381612574565b9050919050565b6000602082019050818103600083015261296381612597565b9050919050565b60006020820190508181036000830152612983816125ba565b9050919050565b600060208201905081810360008301526129a3816125dd565b9050919050565b600060208201905081810360008301526129c381612600565b9050919050565b600060208201905081810360008301526129e381612623565b9050919050565b60006020820190508181036000830152612a0381612646565b9050919050565b60006020820190508181036000830152612a2381612669565b9050919050565b60006020820190508181036000830152612a438161268c565b9050919050565b60006020820190508181036000830152612a63816126af565b9050919050565b60006020820190508181036000830152612a83816126d2565b9050919050565b60006020820190508181036000830152612aa3816126f5565b9050919050565b60006020820190508181036000830152612ac381612718565b9050919050565b6000602082019050612adf600083018461273b565b92915050565b6000602082019050612afa600083018461274a565b92915050565b6000612b0a612b1b565b9050612b168282612d49565b919050565b6000604051905090565b600067ffffffffffffffff821115612b4057612b3f612e81565b5b612b4982612eb0565b9050602081019050919050565b600081519050919050565b600081519050919050565b600082825260208201905092915050565b600082825260208201905092915050565b600081905092915050565b6000612ba482612cbe565b9150612baf83612cbe565b9250827fffffffffffffffffffffffffffffffffffffffffffffffffffffffffffffffff03821115612be457612be3612df4565b5b828201905092915050565b6000612bfa82612cbe565b9150612c0583612cbe565b925082612c1557612c14612e23565b5b828204905092915050565b6000612c2b82612cbe565b9150612c3683612cbe565b925082821015612c4957612c48612df4565b5b828203905092915050565b6000612c5f82612c9e565b9050919050565b60008115159050919050565b60007fffffffff0000000000000000000000000000000000000000000000000000000082169050919050565b600073ffffffffffffffffffffffffffffffffffffffff82169050919050565b6000819050919050565b600060ff82169050919050565b82818337600083830152505050565b60005b83811015612d02578082015181840152602081019050612ce7565b83811115612d11576000848401525b50505050565b60006002820490506001821680612d2f57607f821691505b60208210811415612d4357612d42612e52565b5b50919050565b612d5282612eb0565b810181811067ffffffffffffffff82111715612d7157612d70612e81565b5b80604052505050565b6000612d8582612cbe565b91507fffffffffffffffffffffffffffffffffffffffffffffffffffffffffffffffff821415612db857612db7612df4565b5b600182019050919050565b6000612dce82612cbe565b9150612dd983612cbe565b925082612de957612de8612e23565b5b828206905092915050565b7f4e487b7100000000000000000000000000000000000000000000000000000000600052601160045260246000fd5b7f4e487b7100000000000000000000000000000000000000000000000000000000600052601260045260246000fd5b7f4e487b7100000000000000000000000000000000000000000000000000000000600052602260045260246000fd5b7f4e487b7100000000000000000000000000000000000000000000000000000000600052604160045260246000fd5b6000601f19601f8301169050919050565b7f4552433732313a207472616e7366657220746f206e6f6e20455243373231526560008201527f63656976657220696d706c656d656e7465720000000000000000000000000000602082015250565b7f4f776e61626c653a206e6577206f776e657220697320746865207a65726f206160008201527f6464726573730000000000000000000000000000000000000000000000000000602082015250565b7f4552433732313a207472616e736665722066726f6d20696e636f72726563742060008201527f6f776e6572000000000000000000000000000000000000000000000000000000602082015250565b7f4552433732313a20746f6b656e20616c7265616479206d696e74656400000000600082015250565b7f7061737365732061726520736f6c64206f757420736f7272792062726f000000600082015250565b7f4552433732313a207472616e7366657220746f20746865207a65726f2061646460008201527f7265737300000000000000000000000000000000000000000000000000000000602082015250565b7f4552433732313a20617070726f766520746f2063616c6c657200000000000000600082015250565b7f4552433732313a206f70657261746f7220717565727920666f72206e6f6e657860008201527f697374656e7420746f6b656e0000000000000000000000000000000000000000602082015250565b7f4552433732313a2061646472657373207a65726f206973206e6f74206120766160008201527f6c6964206f776e65720000000000000000000000000000000000000000000000602082015250565b7f4552433732313a20617070726f76652063616c6c6572206973206e6f74206f7760008201527f6e6572206e6f7220617070726f76656420666f7220616c6c0000000000000000602082015250565b7f70617920666f72206e6f6e6f6700000000000000000000000000000000000000600082015250565b7f4552433732313a206f776e657220717565727920666f72206e6f6e657869737460008201527f656e7420746f6b656e0000000000000000000000000000000000000000000000602082015250565b7f45524337323155524953746f726167653a2055524920736574206f66206e6f6e60008201527f6578697374656e7420746f6b656e000000000000000000000000000000000000602082015250565b7f4552433732313a206d696e7420746f20746865207a65726f2061646472657373600082015250565b7f45524337323155524953746f726167653a2055524920717565727920666f722060008201527f6e6f6e6578697374656e7420746f6b656e000000000000000000000000000000602082015250565b7f4552433732313a20617070726f76656420717565727920666f72206e6f6e657860008201527f697374656e7420746f6b656e0000000000000000000000000000000000000000602082015250565b7f4f776e61626c653a2063616c6c6572206973206e6f7420746865206f776e6572600082015250565b7f4552433732314d657461646174613a2055524920717565727920666f72206e6f60008201527f6e6578697374656e7420746f6b656e0000000000000000000000000000000000602082015250565b7f4552433732313a20617070726f76616c20746f2063757272656e74206f776e6560008201527f7200000000000000000000000000000000000000000000000000000000000000602082015250565b7f4552433732313a207472616e736665722063616c6c6572206973206e6f74206f60008201527f776e6572206e6f7220617070726f766564000000000000000000000000000000602082015250565b61341281612c54565b811461341d57600080fd5b50565b61342981612c66565b811461343457600080fd5b50565b61344081612c72565b811461344b57600080fd5b50565b61345781612cbe565b811461346257600080fd5b5056fe697066733a2f2f6261666b726569686a79686371667a333534346b6a656d3535656c3366613377687466686f61676c3565686362353634656d7364336f6364793771697066733a2f2f6261666b7265696132707a6d6a7a657a636967747136686c626e726d3471746f68377a34756c66727474656c7175667361646c7432767768717734a2646970667358221220767a5e18fd854b09908f5af230eeb57fe21dbd0d5865263dde4e37139a5f9b9664736f6c63430008040033",
  "linkReferences": {},
  "deployedLinkReferences": {}
}