{
  "_format": "hh-sol-artifact-1",
  "contractName": "CTBPass",
  "sourceName": "contracts/CTBPass.sol",
  "abi": [
    {
      "inputs": [],
      "stateMutability": "nonpayable",
      "type": "constructor"
    },
    {
      "anonymous": false,
      "inputs": [
        {
          "indexed": true,
          "internalType": "address",
          "name": "owner",
          "type": "address"
        },
        {
          "indexed": true,
          "internalType": "address",
          "name": "approved",
          "type": "address"
        },
        {
          "indexed": true,
          "internalType": "uint256",
          "name": "tokenId",
          "type": "uint256"
        }
      ],
      "name": "Approval",
      "type": "event"
    },
    {
      "anonymous": false,
      "inputs": [
        {
          "indexed": true,
          "internalType": "address",
          "name": "owner",
          "type": "address"
        },
        {
          "indexed": true,
          "internalType": "address",
          "name": "operator",
          "type": "address"
        },
        {
          "indexed": false,
          "internalType": "bool",
          "name": "approved",
          "type": "bool"
        }
      ],
      "name": "ApprovalForAll",
      "type": "event"
    },
    {
      "anonymous": false,
      "inputs": [
        {
          "indexed": false,
          "internalType": "address",
          "name": "sender",
          "type": "address"
        },
        {
          "indexed": false,
          "internalType": "uint256",
          "name": "tokenId",
          "type": "uint256"
        }
      ],
      "name": "NewPassMinted",
      "type": "event"
    },
    {
      "anonymous": false,
      "inputs": [
        {
          "indexed": true,
          "internalType": "address",
          "name": "previousOwner",
          "type": "address"
        },
        {
          "indexed": true,
          "internalType": "address",
          "name": "newOwner",
          "type": "address"
        }
      ],
      "name": "OwnershipTransferred",
      "type": "event"
    },
    {
      "anonymous": false,
      "inputs": [
        {
          "indexed": true,
          "internalType": "address",
          "name": "from",
          "type": "address"
        },
        {
          "indexed": true,
          "internalType": "address",
          "name": "to",
          "type": "address"
        },
        {
          "indexed": true,
          "internalType": "uint256",
          "name": "tokenId",
          "type": "uint256"
        }
      ],
      "name": "Transfer",
      "type": "event"
    },
    {
      "inputs": [],
      "name": "MINT_LIMIT",
      "outputs": [
        {
          "internalType": "uint256",
          "name": "",
          "type": "uint256"
        }
      ],
      "stateMutability": "view",
      "type": "function"
    },
    {
      "inputs": [],
      "name": "OG_LIMIT",
      "outputs": [
        {
          "internalType": "uint256",
          "name": "",
          "type": "uint256"
        }
      ],
      "stateMutability": "view",
      "type": "function"
    },
    {
      "inputs": [
        {
          "internalType": "address",
          "name": "to",
          "type": "address"
        },
        {
          "internalType": "uint256",
          "name": "tokenId",
          "type": "uint256"
        }
      ],
      "name": "approve",
      "outputs": [],
      "stateMutability": "nonpayable",
      "type": "function"
    },
    {
      "inputs": [
        {
          "internalType": "address",
          "name": "owner",
          "type": "address"
        }
      ],
      "name": "balanceOf",
      "outputs": [
        {
          "internalType": "uint256",
          "name": "",
          "type": "uint256"
        }
      ],
      "stateMutability": "view",
      "type": "function"
    },
    {
      "inputs": [],
      "name": "checkMembershipStatus",
      "outputs": [
        {
          "internalType": "uint256",
          "name": "",
          "type": "uint256"
        }
      ],
      "stateMutability": "view",
      "type": "function"
    },
    {
      "inputs": [],
      "name": "checkTokenId",
      "outputs": [
        {
          "internalType": "uint256",
          "name": "",
          "type": "uint256"
        }
      ],
      "stateMutability": "view",
      "type": "function"
    },
    {
      "inputs": [
        {
          "internalType": "uint256",
          "name": "tokenId",
          "type": "uint256"
        }
      ],
      "name": "getApproved",
      "outputs": [
        {
          "internalType": "address",
          "name": "",
          "type": "address"
        }
      ],
      "stateMutability": "view",
      "type": "function"
    },
    {
      "inputs": [
        {
          "internalType": "address",
          "name": "owner",
          "type": "address"
        },
        {
          "internalType": "address",
          "name": "operator",
          "type": "address"
        }
      ],
      "name": "isApprovedForAll",
      "outputs": [
        {
          "internalType": "bool",
          "name": "",
          "type": "bool"
        }
      ],
      "stateMutability": "view",
      "type": "function"
    },
    {
      "inputs": [],
      "name": "mintThePass",
      "outputs": [],
      "stateMutability": "payable",
      "type": "function"
    },
    {
      "inputs": [],
      "name": "name",
      "outputs": [
        {
          "internalType": "string",
          "name": "",
          "type": "string"
        }
      ],
      "stateMutability": "view",
      "type": "function"
    },
    {
      "inputs": [
        {
          "internalType": "address",
          "name": "",
          "type": "address"
        }
      ],
      "name": "nftHolders",
      "outputs": [
        {
          "internalType": "uint256",
          "name": "",
          "type": "uint256"
        }
      ],
      "stateMutability": "view",
      "type": "function"
    },
    {
      "inputs": [],
      "name": "owner",
      "outputs": [
        {
          "internalType": "address",
          "name": "",
          "type": "address"
        }
      ],
      "stateMutability": "view",
      "type": "function"
    },
    {
      "inputs": [
        {
          "internalType": "uint256",
          "name": "tokenId",
          "type": "uint256"
        }
      ],
      "name": "ownerOf",
      "outputs": [
        {
          "internalType": "address",
          "name": "",
          "type": "address"
        }
      ],
      "stateMutability": "view",
      "type": "function"
    },
    {
      "inputs": [],
      "name": "renounceOwnership",
      "outputs": [],
      "stateMutability": "nonpayable",
      "type": "function"
    },
    {
      "inputs": [
        {
          "internalType": "address",
          "name": "from",
          "type": "address"
        },
        {
          "internalType": "address",
          "name": "to",
          "type": "address"
        },
        {
          "internalType": "uint256",
          "name": "tokenId",
          "type": "uint256"
        }
      ],
      "name": "safeTransferFrom",
      "outputs": [],
      "stateMutability": "nonpayable",
      "type": "function"
    },
    {
      "inputs": [
        {
          "internalType": "address",
          "name": "from",
          "type": "address"
        },
        {
          "internalType": "address",
          "name": "to",
          "type": "address"
        },
        {
          "internalType": "uint256",
          "name": "tokenId",
          "type": "uint256"
        },
        {
          "internalType": "bytes",
          "name": "data",
          "type": "bytes"
        }
      ],
      "name": "safeTransferFrom",
      "outputs": [],
      "stateMutability": "nonpayable",
      "type": "function"
    },
    {
      "inputs": [
        {
          "internalType": "address",
          "name": "operator",
          "type": "address"
        },
        {
          "internalType": "bool",
          "name": "approved",
          "type": "bool"
        }
      ],
      "name": "setApprovalForAll",
      "outputs": [],
      "stateMutability": "nonpayable",
      "type": "function"
    },
    {
      "inputs": [
        {
          "internalType": "bytes4",
          "name": "interfaceId",
          "type": "bytes4"
        }
      ],
      "name": "supportsInterface",
      "outputs": [
        {
          "internalType": "bool",
          "name": "",
          "type": "bool"
        }
      ],
      "stateMutability": "view",
      "type": "function"
    },
    {
      "inputs": [],
      "name": "symbol",
      "outputs": [
        {
          "internalType": "string",
          "name": "",
          "type": "string"
        }
      ],
      "stateMutability": "view",
      "type": "function"
    },
    {
      "inputs": [
        {
          "internalType": "uint256",
          "name": "tokenId",
          "type": "uint256"
        }
      ],
      "name": "tokenURI",
      "outputs": [
        {
          "internalType": "string",
          "name": "",
          "type": "string"
        }
      ],
      "stateMutability": "view",
      "type": "function"
    },
    {
      "inputs": [
        {
          "internalType": "address",
          "name": "from",
          "type": "address"
        },
        {
          "internalType": "address",
          "name": "to",
          "type": "address"
        },
        {
          "internalType": "uint256",
          "name": "tokenId",
          "type": "uint256"
        }
      ],
      "name": "transferFrom",
      "outputs": [],
      "stateMutability": "nonpayable",
      "type": "function"
    },
    {
      "inputs": [
        {
          "internalType": "address",
          "name": "newOwner",
          "type": "address"
        }
      ],
      "name": "transferOwnership",
      "outputs": [],
      "stateMutability": "nonpayable",
      "type": "function"
    },
    {
      "inputs": [],
      "name": "withdraw",
      "outputs": [],
      "stateMutability": "nonpayable",
      "type": "function"
    }
  ],
  "bytecode": "0x60806040523480156200001157600080fd5b506040518060400160405280601381526020017f436f6f6b2074686520426f6f6b732050617373000000000000000000000000008152506040518060400160405280600481526020017f4354425000000000000000000000000000000000000000000000000000000000815250816000908051906020019062000096929190620001d3565b508060019080519060200190620000af929190620001d3565b505050620000d2620000c6620000ef60201b60201c565b620000f760201b60201c565b620000e96008620001bd60201b620011891760201c565b620002e8565b600033905090565b6000600760009054906101000a900473ffffffffffffffffffffffffffffffffffffffff16905081600760006101000a81548173ffffffffffffffffffffffffffffffffffffffff021916908373ffffffffffffffffffffffffffffffffffffffff1602179055508173ffffffffffffffffffffffffffffffffffffffff168173ffffffffffffffffffffffffffffffffffffffff167f8be0079c531659141344cd1fd0a4f28419497f9722a3daafe3b4186f6b6457e060405160405180910390a35050565b6001816000016000828254019250508190555050565b828054620001e19062000283565b90600052602060002090601f01602090048101928262000205576000855562000251565b82601f106200022057805160ff191683800117855562000251565b8280016001018555821562000251579182015b828111156200025057825182559160200191906001019062000233565b5b50905062000260919062000264565b5090565b5b808211156200027f57600081600090555060010162000265565b5090565b600060028204905060018216806200029c57607f821691505b60208210811415620002b357620002b2620002b9565b5b50919050565b7f4e487b7100000000000000000000000000000000000000000000000000000000600052602260045260246000fd5b61353880620002f86000396000f3fe6080604052600436106101405760003560e01c80636352211e116100b657806395d89b411161006f57806395d89b411461042b578063a22cb46514610456578063b88d4fde1461047f578063c87b56dd146104a8578063e985e9c5146104e5578063f2fde38b1461052257610140565b80636352211e14610307578063656100221461034457806370a082311461036f578063715018a6146103ac5780637df124a1146103c35780638da5cb5b1461040057610140565b8063229f8bbc11610108578063229f8bbc1461023e57806323b872dd146102485780633ccfd60b1461027157806342842e0e146102885780635a1bafdb146102b1578063631123ab146102dc57610140565b806301ffc9a714610145578063027752401461018257806306fdde03146101ad578063081812fc146101d8578063095ea7b314610215575b600080fd5b34801561015157600080fd5b5061016c60048036038101906101679190612393565b61054b565b604051610179919061284e565b60405180910390f35b34801561018e57600080fd5b5061019761062d565b6040516101a49190612b0b565b60405180910390f35b3480156101b957600080fd5b506101c2610633565b6040516101cf9190612869565b60405180910390f35b3480156101e457600080fd5b506101ff60048036038101906101fa91906123e5565b6106c5565b60405161020c91906127be565b60405180910390f35b34801561022157600080fd5b5061023c60048036038101906102379190612357565b61074a565b005b610246610862565b005b34801561025457600080fd5b5061026f600480360381019061026a9190612251565b6109ab565b005b34801561027d57600080fd5b50610286610a0b565b005b34801561029457600080fd5b506102af60048036038101906102aa9190612251565b610ad0565b005b3480156102bd57600080fd5b506102c6610af0565b6040516102d39190612b0b565b60405180910390f35b3480156102e857600080fd5b506102f1610b06565b6040516102fe9190612b0b565b60405180910390f35b34801561031357600080fd5b5061032e600480360381019061032991906123e5565b610b0c565b60405161033b91906127be565b60405180910390f35b34801561035057600080fd5b50610359610bbe565b6040516103669190612b0b565b60405180910390f35b34801561037b57600080fd5b50610396600480360381019061039191906121ec565b610c1f565b6040516103a39190612b0b565b60405180910390f35b3480156103b857600080fd5b506103c1610cd7565b005b3480156103cf57600080fd5b506103ea60048036038101906103e591906121ec565b610d5f565b6040516103f79190612b0b565b60405180910390f35b34801561040c57600080fd5b50610415610d77565b60405161042291906127be565b60405180910390f35b34801561043757600080fd5b50610440610da1565b60405161044d9190612869565b60405180910390f35b34801561046257600080fd5b5061047d6004803603810190610478919061231b565b610e33565b005b34801561048b57600080fd5b506104a660048036038101906104a191906122a0565b610e49565b005b3480156104b457600080fd5b506104cf60048036038101906104ca91906123e5565b610eab565b6040516104dc9190612869565b60405180910390f35b3480156104f157600080fd5b5061050c60048036038101906105079190612215565b610ffd565b604051610519919061284e565b60405180910390f35b34801561052e57600080fd5b50610549600480360381019061054491906121ec565b611091565b005b60007f80ac58cd000000000000000000000000000000000000000000000000000000007bffffffffffffffffffffffffffffffffffffffffffffffffffffffff1916827bffffffffffffffffffffffffffffffffffffffffffffffffffffffff1916148061061657507f5b5e139f000000000000000000000000000000000000000000000000000000007bffffffffffffffffffffffffffffffffffffffffffffffffffffffff1916827bffffffffffffffffffffffffffffffffffffffffffffffffffffffff1916145b8061062657506106258261119f565b5b9050919050565b61271081565b60606000805461064290612d30565b80601f016020809104026020016040519081016040528092919081815260200182805461066e90612d30565b80156106bb5780601f10610690576101008083540402835291602001916106bb565b820191906000526020600020905b81548152906001019060200180831161069e57829003601f168201915b5050505050905090565b60006106d082611209565b61070f576040517f08c379a000000000000000000000000000000000000000000000000000000000815260040161070690612a4b565b60405180910390fd5b6004600083815260200190815260200160002060009054906101000a900473ffffffffffffffffffffffffffffffffffffffff169050919050565b600061075582610b0c565b90508073ffffffffffffffffffffffffffffffffffffffff168373ffffffffffffffffffffffffffffffffffffffff1614156107c6576040517f08c379a00000000000000000000000000000000000000000000000000000000081526004016107bd90612aab565b60405180910390fd5b8073ffffffffffffffffffffffffffffffffffffffff166107e5611275565b73ffffffffffffffffffffffffffffffffffffffff16148061081457506108138161080e611275565b610ffd565b5b610853576040517f08c379a000000000000000000000000000000000000000000000000000000000815260040161084a9061298b565b60405180910390fd5b61085d838361127d565b505050565b600061086e6008611336565b90506127108111156108b5576040517f08c379a00000000000000000000000000000000000000000000000000000000081526004016108ac90612acb565b60405180910390fd5b6101f481116108cc576108c781611344565b610921565b670de0b6b3a7640000341015610917576040517f08c379a000000000000000000000000000000000000000000000000000000000815260040161090e906129ab565b60405180910390fd5b61092081611379565b5b80600960003373ffffffffffffffffffffffffffffffffffffffff1673ffffffffffffffffffffffffffffffffffffffff168152602001908152602001600020819055507f27a1a3467613fd4d11e7388644c0e1af0fecbbd416b5710aebbea9f19f1d97cc3382604051610996929190612825565b60405180910390a16109a86008611189565b50565b6109bc6109b6611275565b826113ae565b6109fb576040517f08c379a00000000000000000000000000000000000000000000000000000000081526004016109f290612aeb565b60405180910390fd5b610a0683838361148c565b505050565b610a13611275565b73ffffffffffffffffffffffffffffffffffffffff16610a31610d77565b73ffffffffffffffffffffffffffffffffffffffff1614610a87576040517f08c379a0000000000000000000000000000000000000000000000000000000008152600401610a7e90612a6b565b60405180910390fd5b3373ffffffffffffffffffffffffffffffffffffffff166108fc479081150290604051600060405180830381858888f19350505050158015610acd573d6000803e3d6000fd5b50565b610aeb83838360405180602001604052806000815250610e49565b505050565b600080610afd6008611336565b90508091505090565b6101f481565b6000806002600084815260200190815260200160002060009054906101000a900473ffffffffffffffffffffffffffffffffffffffff169050600073ffffffffffffffffffffffffffffffffffffffff168173ffffffffffffffffffffffffffffffffffffffff161415610bb5576040517f08c379a0000000000000000000000000000000000000000000000000000000008152600401610bac906129cb565b60405180910390fd5b80915050919050565b600080600960003373ffffffffffffffffffffffffffffffffffffffff1673ffffffffffffffffffffffffffffffffffffffff1681526020019081526020016000205490506000811115610c16576001915050610c1c565b60029150505b90565b60008073ffffffffffffffffffffffffffffffffffffffff168273ffffffffffffffffffffffffffffffffffffffff161415610c90576040517f08c379a0000000000000000000000000000000000000000000000000000000008152600401610c879061296b565b60405180910390fd5b600360008373ffffffffffffffffffffffffffffffffffffffff1673ffffffffffffffffffffffffffffffffffffffff168152602001908152602001600020549050919050565b610cdf611275565b73ffffffffffffffffffffffffffffffffffffffff16610cfd610d77565b73ffffffffffffffffffffffffffffffffffffffff1614610d53576040517f08c379a0000000000000000000000000000000000000000000000000000000008152600401610d4a90612a6b565b60405180910390fd5b610d5d60006116f3565b565b60096020528060005260406000206000915090505481565b6000600760009054906101000a900473ffffffffffffffffffffffffffffffffffffffff16905090565b606060018054610db090612d30565b80601f0160208091040260200160405190810160405280929190818152602001828054610ddc90612d30565b8015610e295780601f10610dfe57610100808354040283529160200191610e29565b820191906000526020600020905b815481529060010190602001808311610e0c57829003601f168201915b5050505050905090565b610e45610e3e611275565b83836117b9565b5050565b610e5a610e54611275565b836113ae565b610e99576040517f08c379a0000000000000000000000000000000000000000000000000000000008152600401610e9090612aeb565b60405180910390fd5b610ea584848484611926565b50505050565b6060610eb682611209565b610ef5576040517f08c379a0000000000000000000000000000000000000000000000000000000008152600401610eec90612a2b565b60405180910390fd5b6000600660008481526020019081526020016000208054610f1590612d30565b80601f0160208091040260200160405190810160405280929190818152602001828054610f4190612d30565b8015610f8e5780601f10610f6357610100808354040283529160200191610f8e565b820191906000526020600020905b815481529060010190602001808311610f7157829003601f168201915b505050505090506000610f9f611982565b9050600081511415610fb5578192505050610ff8565b600082511115610fea578082604051602001610fd292919061279a565b60405160208183030381529060405292505050610ff8565b610ff384611999565b925050505b919050565b6000600560008473ffffffffffffffffffffffffffffffffffffffff1673ffffffffffffffffffffffffffffffffffffffff16815260200190815260200160002060008373ffffffffffffffffffffffffffffffffffffffff1673ffffffffffffffffffffffffffffffffffffffff16815260200190815260200160002060009054906101000a900460ff16905092915050565b611099611275565b73ffffffffffffffffffffffffffffffffffffffff166110b7610d77565b73ffffffffffffffffffffffffffffffffffffffff161461110d576040517f08c379a000000000000000000000000000000000000000000000000000000000815260040161110490612a6b565b60405180910390fd5b600073ffffffffffffffffffffffffffffffffffffffff168173ffffffffffffffffffffffffffffffffffffffff16141561117d576040517f08c379a0000000000000000000000000000000000000000000000000000000008152600401611174906128ab565b60405180910390fd5b611186816116f3565b50565b6001816000016000828254019250508190555050565b60007f01ffc9a7000000000000000000000000000000000000000000000000000000007bffffffffffffffffffffffffffffffffffffffffffffffffffffffff1916827bffffffffffffffffffffffffffffffffffffffffffffffffffffffff1916149050919050565b60008073ffffffffffffffffffffffffffffffffffffffff166002600084815260200190815260200160002060009054906101000a900473ffffffffffffffffffffffffffffffffffffffff1673ffffffffffffffffffffffffffffffffffffffff1614159050919050565b600033905090565b816004600083815260200190815260200160002060006101000a81548173ffffffffffffffffffffffffffffffffffffffff021916908373ffffffffffffffffffffffffffffffffffffffff160217905550808273ffffffffffffffffffffffffffffffffffffffff166112f083610b0c565b73ffffffffffffffffffffffffffffffffffffffff167f8c5be1e5ebec7d5bd14f71427d1e84f3dd0314c0f7b2291e5b200ac8c7c3b92560405160405180910390a45050565b600081600001549050919050565b61134e3382611a40565b60006040518060800160405280604281526020016134c16042913990506113758282611a5e565b5050565b6113833382611a40565b600060405180608001604052806042815260200161347f6042913990506113aa8282611a5e565b5050565b60006113b982611209565b6113f8576040517f08c379a00000000000000000000000000000000000000000000000000000000081526004016113ef9061294b565b60405180910390fd5b600061140383610b0c565b90508073ffffffffffffffffffffffffffffffffffffffff168473ffffffffffffffffffffffffffffffffffffffff16148061144557506114448185610ffd565b5b8061148357508373ffffffffffffffffffffffffffffffffffffffff1661146b846106c5565b73ffffffffffffffffffffffffffffffffffffffff16145b91505092915050565b8273ffffffffffffffffffffffffffffffffffffffff166114ac82610b0c565b73ffffffffffffffffffffffffffffffffffffffff1614611502576040517f08c379a00000000000000000000000000000000000000000000000000000000081526004016114f9906128cb565b60405180910390fd5b600073ffffffffffffffffffffffffffffffffffffffff168273ffffffffffffffffffffffffffffffffffffffff161415611572576040517f08c379a00000000000000000000000000000000000000000000000000000000081526004016115699061290b565b60405180910390fd5b61157d838383611ad2565b61158860008261127d565b6001600360008573ffffffffffffffffffffffffffffffffffffffff1673ffffffffffffffffffffffffffffffffffffffff16815260200190815260200160002060008282546115d89190612c46565b925050819055506001600360008473ffffffffffffffffffffffffffffffffffffffff1673ffffffffffffffffffffffffffffffffffffffff168152602001908152602001600020600082825461162f9190612bbf565b92505081905550816002600083815260200190815260200160002060006101000a81548173ffffffffffffffffffffffffffffffffffffffff021916908373ffffffffffffffffffffffffffffffffffffffff160217905550808273ffffffffffffffffffffffffffffffffffffffff168473ffffffffffffffffffffffffffffffffffffffff167fddf252ad1be2c89b69c2b068fc378daa952ba7f163c4a11628f55a4df523b3ef60405160405180910390a46116ee838383611ad7565b505050565b6000600760009054906101000a900473ffffffffffffffffffffffffffffffffffffffff16905081600760006101000a81548173ffffffffffffffffffffffffffffffffffffffff021916908373ffffffffffffffffffffffffffffffffffffffff1602179055508173ffffffffffffffffffffffffffffffffffffffff168173ffffffffffffffffffffffffffffffffffffffff167f8be0079c531659141344cd1fd0a4f28419497f9722a3daafe3b4186f6b6457e060405160405180910390a35050565b8173ffffffffffffffffffffffffffffffffffffffff168373ffffffffffffffffffffffffffffffffffffffff161415611828576040517f08c379a000000000000000000000000000000000000000000000000000000000815260040161181f9061292b565b60405180910390fd5b80600560008573ffffffffffffffffffffffffffffffffffffffff1673ffffffffffffffffffffffffffffffffffffffff16815260200190815260200160002060008473ffffffffffffffffffffffffffffffffffffffff1673ffffffffffffffffffffffffffffffffffffffff16815260200190815260200160002060006101000a81548160ff0219169083151502179055508173ffffffffffffffffffffffffffffffffffffffff168373ffffffffffffffffffffffffffffffffffffffff167f17307eab39ab6107e8899845ad3d59bd9653f200f220920489ca2b5937696c3183604051611919919061284e565b60405180910390a3505050565b61193184848461148c565b61193d84848484611adc565b61197c576040517f08c379a00000000000000000000000000000000000000000000000000000000081526004016119739061288b565b60405180910390fd5b50505050565b606060405180602001604052806000815250905090565b60606119a482611209565b6119e3576040517f08c379a00000000000000000000000000000000000000000000000000000000081526004016119da90612a8b565b60405180910390fd5b60006119ed611982565b90506000815111611a0d5760405180602001604052806000815250611a38565b80611a1784611c73565b604051602001611a2892919061279a565b6040516020818303038152906040525b915050919050565b611a5a828260405180602001604052806000815250611e20565b5050565b611a6782611209565b611aa6576040517f08c379a0000000000000000000000000000000000000000000000000000000008152600401611a9d906129eb565b60405180910390fd5b80600660008481526020019081526020016000209080519060200190611acd929190612078565b505050565b505050565b505050565b6000611afd8473ffffffffffffffffffffffffffffffffffffffff16611e7b565b15611c66578373ffffffffffffffffffffffffffffffffffffffff1663150b7a02611b26611275565b8786866040518563ffffffff1660e01b8152600401611b4894939291906127d9565b602060405180830381600087803b158015611b6257600080fd5b505af1925050508015611b9357506040513d601f19601f82011682018060405250810190611b9091906123bc565b60015b611c16573d8060008114611bc3576040519150601f19603f3d011682016040523d82523d6000602084013e611bc8565b606091505b50600081511415611c0e576040517f08c379a0000000000000000000000000000000000000000000000000000000008152600401611c059061288b565b60405180910390fd5b805181602001fd5b63150b7a0260e01b7bffffffffffffffffffffffffffffffffffffffffffffffffffffffff1916817bffffffffffffffffffffffffffffffffffffffffffffffffffffffff191614915050611c6b565b600190505b949350505050565b60606000821415611cbb576040518060400160405280600181526020017f30000000000000000000000000000000000000000000000000000000000000008152509050611e1b565b600082905060005b60008214611ced578080611cd690612d93565b915050600a82611ce69190612c15565b9150611cc3565b60008167ffffffffffffffff811115611d2f577f4e487b7100000000000000000000000000000000000000000000000000000000600052604160045260246000fd5b6040519080825280601f01601f191660200182016040528015611d615781602001600182028036833780820191505090505b5090505b60008514611e1457600182611d7a9190612c46565b9150600a85611d899190612ddc565b6030611d959190612bbf565b60f81b818381518110611dd1577f4e487b7100000000000000000000000000000000000000000000000000000000600052603260045260246000fd5b60200101907effffffffffffffffffffffffffffffffffffffffffffffffffffffffffffff1916908160001a905350600a85611e0d9190612c15565b9450611d65565b8093505050505b919050565b611e2a8383611e9e565b611e376000848484611adc565b611e76576040517f08c379a0000000000000000000000000000000000000000000000000000000008152600401611e6d9061288b565b60405180910390fd5b505050565b6000808273ffffffffffffffffffffffffffffffffffffffff163b119050919050565b600073ffffffffffffffffffffffffffffffffffffffff168273ffffffffffffffffffffffffffffffffffffffff161415611f0e576040517f08c379a0000000000000000000000000000000000000000000000000000000008152600401611f0590612a0b565b60405180910390fd5b611f1781611209565b15611f57576040517f08c379a0000000000000000000000000000000000000000000000000000000008152600401611f4e906128eb565b60405180910390fd5b611f6360008383611ad2565b6001600360008473ffffffffffffffffffffffffffffffffffffffff1673ffffffffffffffffffffffffffffffffffffffff1681526020019081526020016000206000828254611fb39190612bbf565b92505081905550816002600083815260200190815260200160002060006101000a81548173ffffffffffffffffffffffffffffffffffffffff021916908373ffffffffffffffffffffffffffffffffffffffff160217905550808273ffffffffffffffffffffffffffffffffffffffff16600073ffffffffffffffffffffffffffffffffffffffff167fddf252ad1be2c89b69c2b068fc378daa952ba7f163c4a11628f55a4df523b3ef60405160405180910390a461207460008383611ad7565b5050565b82805461208490612d30565b90600052602060002090601f0160209004810192826120a657600085556120ed565b82601f106120bf57805160ff19168380011785556120ed565b828001600101855582156120ed579182015b828111156120ec5782518255916020019190600101906120d1565b5b5090506120fa91906120fe565b5090565b5b808211156121175760008160009055506001016120ff565b5090565b600061212e61212984612b4b565b612b26565b90508281526020810184848401111561214657600080fd5b612151848285612cee565b509392505050565b60008135905061216881613422565b92915050565b60008135905061217d81613439565b92915050565b60008135905061219281613450565b92915050565b6000815190506121a781613450565b92915050565b600082601f8301126121be57600080fd5b81356121ce84826020860161211b565b91505092915050565b6000813590506121e681613467565b92915050565b6000602082840312156121fe57600080fd5b600061220c84828501612159565b91505092915050565b6000806040838503121561222857600080fd5b600061223685828601612159565b925050602061224785828601612159565b9150509250929050565b60008060006060848603121561226657600080fd5b600061227486828701612159565b935050602061228586828701612159565b9250506040612296868287016121d7565b9150509250925092565b600080600080608085870312156122b657600080fd5b60006122c487828801612159565b94505060206122d587828801612159565b93505060406122e6878288016121d7565b925050606085013567ffffffffffffffff81111561230357600080fd5b61230f878288016121ad565b91505092959194509250565b6000806040838503121561232e57600080fd5b600061233c85828601612159565b925050602061234d8582860161216e565b9150509250929050565b6000806040838503121561236a57600080fd5b600061237885828601612159565b9250506020612389858286016121d7565b9150509250929050565b6000602082840312156123a557600080fd5b60006123b384828501612183565b91505092915050565b6000602082840312156123ce57600080fd5b60006123dc84828501612198565b91505092915050565b6000602082840312156123f757600080fd5b6000612405848285016121d7565b91505092915050565b61241781612c7a565b82525050565b61242681612c8c565b82525050565b600061243782612b7c565b6124418185612b92565b9350612451818560208601612cfd565b61245a81612ec9565b840191505092915050565b600061247082612b87565b61247a8185612ba3565b935061248a818560208601612cfd565b61249381612ec9565b840191505092915050565b60006124a982612b87565b6124b38185612bb4565b93506124c3818560208601612cfd565b80840191505092915050565b60006124dc603283612ba3565b91506124e782612eda565b604082019050919050565b60006124ff602683612ba3565b915061250a82612f29565b604082019050919050565b6000612522602583612ba3565b915061252d82612f78565b604082019050919050565b6000612545601c83612ba3565b915061255082612fc7565b602082019050919050565b6000612568602483612ba3565b915061257382612ff0565b604082019050919050565b600061258b601983612ba3565b91506125968261303f565b602082019050919050565b60006125ae602c83612ba3565b91506125b982613068565b604082019050919050565b60006125d1602983612ba3565b91506125dc826130b7565b604082019050919050565b60006125f4603883612ba3565b91506125ff82613106565b604082019050919050565b6000612617600d83612ba3565b915061262282613155565b602082019050919050565b600061263a602983612ba3565b91506126458261317e565b604082019050919050565b600061265d602e83612ba3565b9150612668826131cd565b604082019050919050565b6000612680602083612ba3565b915061268b8261321c565b602082019050919050565b60006126a3603183612ba3565b91506126ae82613245565b604082019050919050565b60006126c6602c83612ba3565b91506126d182613294565b604082019050919050565b60006126e9602083612ba3565b91506126f4826132e3565b602082019050919050565b600061270c602f83612ba3565b91506127178261330c565b604082019050919050565b600061272f602183612ba3565b915061273a8261335b565b604082019050919050565b6000612752601983612ba3565b915061275d826133aa565b602082019050919050565b6000612775603183612ba3565b9150612780826133d3565b604082019050919050565b61279481612ce4565b82525050565b60006127a6828561249e565b91506127b2828461249e565b91508190509392505050565b60006020820190506127d3600083018461240e565b92915050565b60006080820190506127ee600083018761240e565b6127fb602083018661240e565b612808604083018561278b565b818103606083015261281a818461242c565b905095945050505050565b600060408201905061283a600083018561240e565b612847602083018461278b565b9392505050565b6000602082019050612863600083018461241d565b92915050565b600060208201905081810360008301526128838184612465565b905092915050565b600060208201905081810360008301526128a4816124cf565b9050919050565b600060208201905081810360008301526128c4816124f2565b9050919050565b600060208201905081810360008301526128e481612515565b9050919050565b6000602082019050818103600083015261290481612538565b9050919050565b600060208201905081810360008301526129248161255b565b9050919050565b600060208201905081810360008301526129448161257e565b9050919050565b60006020820190508181036000830152612964816125a1565b9050919050565b60006020820190508181036000830152612984816125c4565b9050919050565b600060208201905081810360008301526129a4816125e7565b9050919050565b600060208201905081810360008301526129c48161260a565b9050919050565b600060208201905081810360008301526129e48161262d565b9050919050565b60006020820190508181036000830152612a0481612650565b9050919050565b60006020820190508181036000830152612a2481612673565b9050919050565b60006020820190508181036000830152612a4481612696565b9050919050565b60006020820190508181036000830152612a64816126b9565b9050919050565b60006020820190508181036000830152612a84816126dc565b9050919050565b60006020820190508181036000830152612aa4816126ff565b9050919050565b60006020820190508181036000830152612ac481612722565b9050919050565b60006020820190508181036000830152612ae481612745565b9050919050565b60006020820190508181036000830152612b0481612768565b9050919050565b6000602082019050612b20600083018461278b565b92915050565b6000612b30612b41565b9050612b3c8282612d62565b919050565b6000604051905090565b600067ffffffffffffffff821115612b6657612b65612e9a565b5b612b6f82612ec9565b9050602081019050919050565b600081519050919050565b600081519050919050565b600082825260208201905092915050565b600082825260208201905092915050565b600081905092915050565b6000612bca82612ce4565b9150612bd583612ce4565b9250827fffffffffffffffffffffffffffffffffffffffffffffffffffffffffffffffff03821115612c0a57612c09612e0d565b5b828201905092915050565b6000612c2082612ce4565b9150612c2b83612ce4565b925082612c3b57612c3a612e3c565b5b828204905092915050565b6000612c5182612ce4565b9150612c5c83612ce4565b925082821015612c6f57612c6e612e0d565b5b828203905092915050565b6000612c8582612cc4565b9050919050565b60008115159050919050565b60007fffffffff0000000000000000000000000000000000000000000000000000000082169050919050565b600073ffffffffffffffffffffffffffffffffffffffff82169050919050565b6000819050919050565b82818337600083830152505050565b60005b83811015612d1b578082015181840152602081019050612d00565b83811115612d2a576000848401525b50505050565b60006002820490506001821680612d4857607f821691505b60208210811415612d5c57612d5b612e6b565b5b50919050565b612d6b82612ec9565b810181811067ffffffffffffffff82111715612d8a57612d89612e9a565b5b80604052505050565b6000612d9e82612ce4565b91507fffffffffffffffffffffffffffffffffffffffffffffffffffffffffffffffff821415612dd157612dd0612e0d565b5b600182019050919050565b6000612de782612ce4565b9150612df283612ce4565b925082612e0257612e01612e3c565b5b828206905092915050565b7f4e487b7100000000000000000000000000000000000000000000000000000000600052601160045260246000fd5b7f4e487b7100000000000000000000000000000000000000000000000000000000600052601260045260246000fd5b7f4e487b7100000000000000000000000000000000000000000000000000000000600052602260045260246000fd5b7f4e487b7100000000000000000000000000000000000000000000000000000000600052604160045260246000fd5b6000601f19601f8301169050919050565b7f4552433732313a207472616e7366657220746f206e6f6e20455243373231526560008201527f63656976657220696d706c656d656e7465720000000000000000000000000000602082015250565b7f4f776e61626c653a206e6577206f776e657220697320746865207a65726f206160008201527f6464726573730000000000000000000000000000000000000000000000000000602082015250565b7f4552433732313a207472616e736665722066726f6d20696e636f72726563742060008201527f6f776e6572000000000000000000000000000000000000000000000000000000602082015250565b7f4552433732313a20746f6b656e20616c7265616479206d696e74656400000000600082015250565b7f4552433732313a207472616e7366657220746f20746865207a65726f2061646460008201527f7265737300000000000000000000000000000000000000000000000000000000602082015250565b7f4552433732313a20617070726f766520746f2063616c6c657200000000000000600082015250565b7f4552433732313a206f70657261746f7220717565727920666f72206e6f6e657860008201527f697374656e7420746f6b656e0000000000000000000000000000000000000000602082015250565b7f4552433732313a2061646472657373207a65726f206973206e6f74206120766160008201527f6c6964206f776e65720000000000000000000000000000000000000000000000602082015250565b7f4552433732313a20617070726f76652063616c6c6572206973206e6f74206f7760008201527f6e6572206e6f7220617070726f76656420666f7220616c6c0000000000000000602082015250565b7f70617920666f72206e6f6e6f6700000000000000000000000000000000000000600082015250565b7f4552433732313a206f776e657220717565727920666f72206e6f6e657869737460008201527f656e7420746f6b656e0000000000000000000000000000000000000000000000602082015250565b7f45524337323155524953746f726167653a2055524920736574206f66206e6f6e60008201527f6578697374656e7420746f6b656e000000000000000000000000000000000000602082015250565b7f4552433732313a206d696e7420746f20746865207a65726f2061646472657373600082015250565b7f45524337323155524953746f726167653a2055524920717565727920666f722060008201527f6e6f6e6578697374656e7420746f6b656e000000000000000000000000000000602082015250565b7f4552433732313a20617070726f76656420717565727920666f72206e6f6e657860008201527f697374656e7420746f6b656e0000000000000000000000000000000000000000602082015250565b7f4f776e61626c653a2063616c6c6572206973206e6f7420746865206f776e6572600082015250565b7f4552433732314d657461646174613a2055524920717565727920666f72206e6f60008201527f6e6578697374656e7420746f6b656e0000000000000000000000000000000000602082015250565b7f4552433732313a20617070726f76616c20746f2063757272656e74206f776e6560008201527f7200000000000000000000000000000000000000000000000000000000000000602082015250565b7f7061737365732061726520736f6c64206f757420736f72727900000000000000600082015250565b7f4552433732313a207472616e736665722063616c6c6572206973206e6f74206f60008201527f776e6572206e6f7220617070726f766564000000000000000000000000000000602082015250565b61342b81612c7a565b811461343657600080fd5b50565b61344281612c8c565b811461344d57600080fd5b50565b61345981612c98565b811461346457600080fd5b50565b61347081612ce4565b811461347b57600080fd5b5056fe697066733a2f2f6261666b7265696176626d69676a6778746f6d347467366c6c6c7632757374786d776434786436783564706b697765366c62626e37356972733769697066733a2f2f6261666b726569677437776562687535366a65643634336565686b6c347273726c35667965326e69697674626c696a7a67323365336c7533706334a26469706673582212201b8d6344b50e4e3de167bd7b3f89907019dd520e2851819d529e10d8086de1e664736f6c63430008040033",
  "linkReferences": {},
  "deployedLinkReferences": {}
}