{
  "_format": "hh-sol-artifact-1",
  "contractName": "CTBPass",
  "sourceName": "contracts/CTBPass.sol",
  "abi": [
    {
      "inputs": [],
      "stateMutability": "nonpayable",
      "type": "constructor"
    },
    {
      "anonymous": false,
      "inputs": [
        {
          "indexed": true,
          "internalType": "address",
          "name": "owner",
          "type": "address"
        },
        {
          "indexed": true,
          "internalType": "address",
          "name": "approved",
          "type": "address"
        },
        {
          "indexed": true,
          "internalType": "uint256",
          "name": "tokenId",
          "type": "uint256"
        }
      ],
      "name": "Approval",
      "type": "event"
    },
    {
      "anonymous": false,
      "inputs": [
        {
          "indexed": true,
          "internalType": "address",
          "name": "owner",
          "type": "address"
        },
        {
          "indexed": true,
          "internalType": "address",
          "name": "operator",
          "type": "address"
        },
        {
          "indexed": false,
          "internalType": "bool",
          "name": "approved",
          "type": "bool"
        }
      ],
      "name": "ApprovalForAll",
      "type": "event"
    },
    {
      "anonymous": false,
      "inputs": [
        {
          "indexed": false,
          "internalType": "address",
          "name": "sender",
          "type": "address"
        },
        {
          "indexed": false,
          "internalType": "uint256",
          "name": "tokenId",
          "type": "uint256"
        }
      ],
      "name": "NewPassMinted",
      "type": "event"
    },
    {
      "anonymous": false,
      "inputs": [
        {
          "indexed": true,
          "internalType": "address",
          "name": "previousOwner",
          "type": "address"
        },
        {
          "indexed": true,
          "internalType": "address",
          "name": "newOwner",
          "type": "address"
        }
      ],
      "name": "OwnershipTransferred",
      "type": "event"
    },
    {
      "anonymous": false,
      "inputs": [
        {
          "indexed": true,
          "internalType": "address",
          "name": "from",
          "type": "address"
        },
        {
          "indexed": true,
          "internalType": "address",
          "name": "to",
          "type": "address"
        },
        {
          "indexed": true,
          "internalType": "uint256",
          "name": "tokenId",
          "type": "uint256"
        }
      ],
      "name": "Transfer",
      "type": "event"
    },
    {
      "inputs": [],
      "name": "MINT_LIMIT",
      "outputs": [
        {
          "internalType": "uint256",
          "name": "",
          "type": "uint256"
        }
      ],
      "stateMutability": "view",
      "type": "function"
    },
    {
      "inputs": [],
      "name": "OG_LIMIT",
      "outputs": [
        {
          "internalType": "uint256",
          "name": "",
          "type": "uint256"
        }
      ],
      "stateMutability": "view",
      "type": "function"
    },
    {
      "inputs": [
        {
          "internalType": "address",
          "name": "to",
          "type": "address"
        },
        {
          "internalType": "uint256",
          "name": "tokenId",
          "type": "uint256"
        }
      ],
      "name": "approve",
      "outputs": [],
      "stateMutability": "nonpayable",
      "type": "function"
    },
    {
      "inputs": [
        {
          "internalType": "address",
          "name": "owner",
          "type": "address"
        }
      ],
      "name": "balanceOf",
      "outputs": [
        {
          "internalType": "uint256",
          "name": "",
          "type": "uint256"
        }
      ],
      "stateMutability": "view",
      "type": "function"
    },
    {
      "inputs": [],
      "name": "checkMembershipStatus",
      "outputs": [
        {
          "internalType": "uint8",
          "name": "",
          "type": "uint8"
        }
      ],
      "stateMutability": "view",
      "type": "function"
    },
    {
      "inputs": [],
      "name": "checkTokenId",
      "outputs": [
        {
          "internalType": "uint256",
          "name": "",
          "type": "uint256"
        }
      ],
      "stateMutability": "view",
      "type": "function"
    },
    {
      "inputs": [
        {
          "internalType": "uint256",
          "name": "tokenId",
          "type": "uint256"
        }
      ],
      "name": "getApproved",
      "outputs": [
        {
          "internalType": "address",
          "name": "",
          "type": "address"
        }
      ],
      "stateMutability": "view",
      "type": "function"
    },
    {
      "inputs": [
        {
          "internalType": "address",
          "name": "owner",
          "type": "address"
        },
        {
          "internalType": "address",
          "name": "operator",
          "type": "address"
        }
      ],
      "name": "isApprovedForAll",
      "outputs": [
        {
          "internalType": "bool",
          "name": "",
          "type": "bool"
        }
      ],
      "stateMutability": "view",
      "type": "function"
    },
    {
      "inputs": [],
      "name": "mintThePass",
      "outputs": [],
      "stateMutability": "payable",
      "type": "function"
    },
    {
      "inputs": [],
      "name": "name",
      "outputs": [
        {
          "internalType": "string",
          "name": "",
          "type": "string"
        }
      ],
      "stateMutability": "view",
      "type": "function"
    },
    {
      "inputs": [
        {
          "internalType": "address",
          "name": "",
          "type": "address"
        }
      ],
      "name": "nftHolders",
      "outputs": [
        {
          "internalType": "uint256",
          "name": "",
          "type": "uint256"
        }
      ],
      "stateMutability": "view",
      "type": "function"
    },
    {
      "inputs": [],
      "name": "owner",
      "outputs": [
        {
          "internalType": "address",
          "name": "",
          "type": "address"
        }
      ],
      "stateMutability": "view",
      "type": "function"
    },
    {
      "inputs": [
        {
          "internalType": "uint256",
          "name": "tokenId",
          "type": "uint256"
        }
      ],
      "name": "ownerOf",
      "outputs": [
        {
          "internalType": "address",
          "name": "",
          "type": "address"
        }
      ],
      "stateMutability": "view",
      "type": "function"
    },
    {
      "inputs": [],
      "name": "renounceOwnership",
      "outputs": [],
      "stateMutability": "nonpayable",
      "type": "function"
    },
    {
      "inputs": [
        {
          "internalType": "address",
          "name": "from",
          "type": "address"
        },
        {
          "internalType": "address",
          "name": "to",
          "type": "address"
        },
        {
          "internalType": "uint256",
          "name": "tokenId",
          "type": "uint256"
        }
      ],
      "name": "safeTransferFrom",
      "outputs": [],
      "stateMutability": "nonpayable",
      "type": "function"
    },
    {
      "inputs": [
        {
          "internalType": "address",
          "name": "from",
          "type": "address"
        },
        {
          "internalType": "address",
          "name": "to",
          "type": "address"
        },
        {
          "internalType": "uint256",
          "name": "tokenId",
          "type": "uint256"
        },
        {
          "internalType": "bytes",
          "name": "data",
          "type": "bytes"
        }
      ],
      "name": "safeTransferFrom",
      "outputs": [],
      "stateMutability": "nonpayable",
      "type": "function"
    },
    {
      "inputs": [
        {
          "internalType": "address",
          "name": "operator",
          "type": "address"
        },
        {
          "internalType": "bool",
          "name": "approved",
          "type": "bool"
        }
      ],
      "name": "setApprovalForAll",
      "outputs": [],
      "stateMutability": "nonpayable",
      "type": "function"
    },
    {
      "inputs": [
        {
          "internalType": "bytes4",
          "name": "interfaceId",
          "type": "bytes4"
        }
      ],
      "name": "supportsInterface",
      "outputs": [
        {
          "internalType": "bool",
          "name": "",
          "type": "bool"
        }
      ],
      "stateMutability": "view",
      "type": "function"
    },
    {
      "inputs": [],
      "name": "symbol",
      "outputs": [
        {
          "internalType": "string",
          "name": "",
          "type": "string"
        }
      ],
      "stateMutability": "view",
      "type": "function"
    },
    {
      "inputs": [
        {
          "internalType": "uint256",
          "name": "tokenId",
          "type": "uint256"
        }
      ],
      "name": "tokenURI",
      "outputs": [
        {
          "internalType": "string",
          "name": "",
          "type": "string"
        }
      ],
      "stateMutability": "view",
      "type": "function"
    },
    {
      "inputs": [
        {
          "internalType": "address",
          "name": "from",
          "type": "address"
        },
        {
          "internalType": "address",
          "name": "to",
          "type": "address"
        },
        {
          "internalType": "uint256",
          "name": "tokenId",
          "type": "uint256"
        }
      ],
      "name": "transferFrom",
      "outputs": [],
      "stateMutability": "nonpayable",
      "type": "function"
    },
    {
      "inputs": [
        {
          "internalType": "address",
          "name": "newOwner",
          "type": "address"
        }
      ],
      "name": "transferOwnership",
      "outputs": [],
      "stateMutability": "nonpayable",
      "type": "function"
    },
    {
      "inputs": [],
      "name": "withdraw",
      "outputs": [],
      "stateMutability": "nonpayable",
      "type": "function"
    }
  ],
  "bytecode": "0x60806040523480156200001157600080fd5b506040518060400160405280601b81526020017f436f6f6b2074686520426f6f6b732050617373202d20746573743500000000008152506040518060400160405280600481526020017f4354425000000000000000000000000000000000000000000000000000000000815250816000908051906020019062000096929190620001d3565b508060019080519060200190620000af929190620001d3565b505050620000d2620000c6620000ef60201b60201c565b620000f760201b60201c565b620000e96008620001bd60201b620011851760201c565b620002e8565b600033905090565b6000600760009054906101000a900473ffffffffffffffffffffffffffffffffffffffff16905081600760006101000a81548173ffffffffffffffffffffffffffffffffffffffff021916908373ffffffffffffffffffffffffffffffffffffffff1602179055508173ffffffffffffffffffffffffffffffffffffffff168173ffffffffffffffffffffffffffffffffffffffff167f8be0079c531659141344cd1fd0a4f28419497f9722a3daafe3b4186f6b6457e060405160405180910390a35050565b6001816000016000828254019250508190555050565b828054620001e19062000283565b90600052602060002090601f01602090048101928262000205576000855562000251565b82601f106200022057805160ff191683800117855562000251565b8280016001018555821562000251579182015b828111156200025057825182559160200191906001019062000233565b5b50905062000260919062000264565b5090565b5b808211156200027f57600081600090555060010162000265565b5090565b600060028204905060018216806200029c57607f821691505b60208210811415620002b357620002b2620002b9565b5b50919050565b7f4e487b7100000000000000000000000000000000000000000000000000000000600052602260045260246000fd5b61356b80620002f86000396000f3fe6080604052600436106101405760003560e01c80636352211e116100b657806395d89b411161006f57806395d89b411461042b578063a22cb46514610456578063b88d4fde1461047f578063c87b56dd146104a8578063e985e9c5146104e5578063f2fde38b1461052257610140565b80636352211e14610307578063656100221461034457806370a082311461036f578063715018a6146103ac5780637df124a1146103c35780638da5cb5b1461040057610140565b8063229f8bbc11610108578063229f8bbc1461023e57806323b872dd146102485780633ccfd60b1461027157806342842e0e146102885780635a1bafdb146102b1578063631123ab146102dc57610140565b806301ffc9a714610145578063027752401461018257806306fdde03146101ad578063081812fc146101d8578063095ea7b314610215575b600080fd5b34801561015157600080fd5b5061016c6004803603810190610167919061238f565b61054b565b6040516101799190612859565b60405180910390f35b34801561018e57600080fd5b5061019761062d565b6040516101a49190612b16565b60405180910390f35b3480156101b957600080fd5b506101c2610632565b6040516101cf9190612874565b60405180910390f35b3480156101e457600080fd5b506101ff60048036038101906101fa91906123e1565b6106c4565b60405161020c91906127c9565b60405180910390f35b34801561022157600080fd5b5061023c60048036038101906102379190612353565b610749565b005b610246610861565b005b34801561025457600080fd5b5061026f600480360381019061026a919061224d565b6109a8565b005b34801561027d57600080fd5b50610286610a08565b005b34801561029457600080fd5b506102af60048036038101906102aa919061224d565b610acd565b005b3480156102bd57600080fd5b506102c6610aed565b6040516102d39190612b16565b60405180910390f35b3480156102e857600080fd5b506102f1610b03565b6040516102fe9190612b16565b60405180910390f35b34801561031357600080fd5b5061032e600480360381019061032991906123e1565b610b08565b60405161033b91906127c9565b60405180910390f35b34801561035057600080fd5b50610359610bba565b6040516103669190612b31565b60405180910390f35b34801561037b57600080fd5b50610396600480360381019061039191906121e8565b610c1b565b6040516103a39190612b16565b60405180910390f35b3480156103b857600080fd5b506103c1610cd3565b005b3480156103cf57600080fd5b506103ea60048036038101906103e591906121e8565b610d5b565b6040516103f79190612b16565b60405180910390f35b34801561040c57600080fd5b50610415610d73565b60405161042291906127c9565b60405180910390f35b34801561043757600080fd5b50610440610d9d565b60405161044d9190612874565b60405180910390f35b34801561046257600080fd5b5061047d60048036038101906104789190612317565b610e2f565b005b34801561048b57600080fd5b506104a660048036038101906104a1919061229c565b610e45565b005b3480156104b457600080fd5b506104cf60048036038101906104ca91906123e1565b610ea7565b6040516104dc9190612874565b60405180910390f35b3480156104f157600080fd5b5061050c60048036038101906105079190612211565b610ff9565b6040516105199190612859565b60405180910390f35b34801561052e57600080fd5b50610549600480360381019061054491906121e8565b61108d565b005b60007f80ac58cd000000000000000000000000000000000000000000000000000000007bffffffffffffffffffffffffffffffffffffffffffffffffffffffff1916827bffffffffffffffffffffffffffffffffffffffffffffffffffffffff1916148061061657507f5b5e139f000000000000000000000000000000000000000000000000000000007bffffffffffffffffffffffffffffffffffffffffffffffffffffffff1916827bffffffffffffffffffffffffffffffffffffffffffffffffffffffff1916145b8061062657506106258261119b565b5b9050919050565b600a81565b60606000805461064190612d63565b80601f016020809104026020016040519081016040528092919081815260200182805461066d90612d63565b80156106ba5780601f1061068f576101008083540402835291602001916106ba565b820191906000526020600020905b81548152906001019060200180831161069d57829003601f168201915b5050505050905090565b60006106cf82611205565b61070e576040517f08c379a000000000000000000000000000000000000000000000000000000000815260040161070590612a76565b60405180910390fd5b6004600083815260200190815260200160002060009054906101000a900473ffffffffffffffffffffffffffffffffffffffff169050919050565b600061075482610b08565b90508073ffffffffffffffffffffffffffffffffffffffff168373ffffffffffffffffffffffffffffffffffffffff1614156107c5576040517f08c379a00000000000000000000000000000000000000000000000000000000081526004016107bc90612ad6565b60405180910390fd5b8073ffffffffffffffffffffffffffffffffffffffff166107e4611271565b73ffffffffffffffffffffffffffffffffffffffff16148061081357506108128161080d611271565b610ff9565b5b610852576040517f08c379a0000000000000000000000000000000000000000000000000000000008152600401610849906129b6565b60405180910390fd5b61085c8383611279565b505050565b600061086d6008611332565b9050600a8111156108b3576040517f08c379a00000000000000000000000000000000000000000000000000000000081526004016108aa90612916565b60405180910390fd5b600281116108c9576108c481611340565b61091e565b670de0b6b3a7640000341015610914576040517f08c379a000000000000000000000000000000000000000000000000000000000815260040161090b906129d6565b60405180910390fd5b61091d81611375565b5b80600960003373ffffffffffffffffffffffffffffffffffffffff1673ffffffffffffffffffffffffffffffffffffffff168152602001908152602001600020819055507f27a1a3467613fd4d11e7388644c0e1af0fecbbd416b5710aebbea9f19f1d97cc3382604051610993929190612830565b60405180910390a16109a56008611185565b50565b6109b96109b3611271565b826113aa565b6109f8576040517f08c379a00000000000000000000000000000000000000000000000000000000081526004016109ef90612af6565b60405180910390fd5b610a03838383611488565b505050565b610a10611271565b73ffffffffffffffffffffffffffffffffffffffff16610a2e610d73565b73ffffffffffffffffffffffffffffffffffffffff1614610a84576040517f08c379a0000000000000000000000000000000000000000000000000000000008152600401610a7b90612a96565b60405180910390fd5b3373ffffffffffffffffffffffffffffffffffffffff166108fc479081150290604051600060405180830381858888f19350505050158015610aca573d6000803e3d6000fd5b50565b610ae883838360405180602001604052806000815250610e45565b505050565b600080610afa6008611332565b90508091505090565b600281565b6000806002600084815260200190815260200160002060009054906101000a900473ffffffffffffffffffffffffffffffffffffffff169050600073ffffffffffffffffffffffffffffffffffffffff168173ffffffffffffffffffffffffffffffffffffffff161415610bb1576040517f08c379a0000000000000000000000000000000000000000000000000000000008152600401610ba8906129f6565b60405180910390fd5b80915050919050565b600080600960003373ffffffffffffffffffffffffffffffffffffffff1673ffffffffffffffffffffffffffffffffffffffff1681526020019081526020016000205490506000811115610c12576001915050610c18565b60029150505b90565b60008073ffffffffffffffffffffffffffffffffffffffff168273ffffffffffffffffffffffffffffffffffffffff161415610c8c576040517f08c379a0000000000000000000000000000000000000000000000000000000008152600401610c8390612996565b60405180910390fd5b600360008373ffffffffffffffffffffffffffffffffffffffff1673ffffffffffffffffffffffffffffffffffffffff168152602001908152602001600020549050919050565b610cdb611271565b73ffffffffffffffffffffffffffffffffffffffff16610cf9610d73565b73ffffffffffffffffffffffffffffffffffffffff1614610d4f576040517f08c379a0000000000000000000000000000000000000000000000000000000008152600401610d4690612a96565b60405180910390fd5b610d5960006116ef565b565b60096020528060005260406000206000915090505481565b6000600760009054906101000a900473ffffffffffffffffffffffffffffffffffffffff16905090565b606060018054610dac90612d63565b80601f0160208091040260200160405190810160405280929190818152602001828054610dd890612d63565b8015610e255780601f10610dfa57610100808354040283529160200191610e25565b820191906000526020600020905b815481529060010190602001808311610e0857829003601f168201915b5050505050905090565b610e41610e3a611271565b83836117b5565b5050565b610e56610e50611271565b836113aa565b610e95576040517f08c379a0000000000000000000000000000000000000000000000000000000008152600401610e8c90612af6565b60405180910390fd5b610ea184848484611922565b50505050565b6060610eb282611205565b610ef1576040517f08c379a0000000000000000000000000000000000000000000000000000000008152600401610ee890612a56565b60405180910390fd5b6000600660008481526020019081526020016000208054610f1190612d63565b80601f0160208091040260200160405190810160405280929190818152602001828054610f3d90612d63565b8015610f8a5780601f10610f5f57610100808354040283529160200191610f8a565b820191906000526020600020905b815481529060010190602001808311610f6d57829003601f168201915b505050505090506000610f9b61197e565b9050600081511415610fb1578192505050610ff4565b600082511115610fe6578082604051602001610fce9291906127a5565b60405160208183030381529060405292505050610ff4565b610fef84611995565b925050505b919050565b6000600560008473ffffffffffffffffffffffffffffffffffffffff1673ffffffffffffffffffffffffffffffffffffffff16815260200190815260200160002060008373ffffffffffffffffffffffffffffffffffffffff1673ffffffffffffffffffffffffffffffffffffffff16815260200190815260200160002060009054906101000a900460ff16905092915050565b611095611271565b73ffffffffffffffffffffffffffffffffffffffff166110b3610d73565b73ffffffffffffffffffffffffffffffffffffffff1614611109576040517f08c379a000000000000000000000000000000000000000000000000000000000815260040161110090612a96565b60405180910390fd5b600073ffffffffffffffffffffffffffffffffffffffff168173ffffffffffffffffffffffffffffffffffffffff161415611179576040517f08c379a0000000000000000000000000000000000000000000000000000000008152600401611170906128b6565b60405180910390fd5b611182816116ef565b50565b6001816000016000828254019250508190555050565b60007f01ffc9a7000000000000000000000000000000000000000000000000000000007bffffffffffffffffffffffffffffffffffffffffffffffffffffffff1916827bffffffffffffffffffffffffffffffffffffffffffffffffffffffff1916149050919050565b60008073ffffffffffffffffffffffffffffffffffffffff166002600084815260200190815260200160002060009054906101000a900473ffffffffffffffffffffffffffffffffffffffff1673ffffffffffffffffffffffffffffffffffffffff1614159050919050565b600033905090565b816004600083815260200190815260200160002060006101000a81548173ffffffffffffffffffffffffffffffffffffffff021916908373ffffffffffffffffffffffffffffffffffffffff160217905550808273ffffffffffffffffffffffffffffffffffffffff166112ec83610b08565b73ffffffffffffffffffffffffffffffffffffffff167f8c5be1e5ebec7d5bd14f71427d1e84f3dd0314c0f7b2291e5b200ac8c7c3b92560405160405180910390a45050565b600081600001549050919050565b61134a3382611a3c565b60006040518060800160405280604281526020016134b26042913990506113718282611a5a565b5050565b61137f3382611a3c565b60006040518060800160405280604281526020016134f46042913990506113a68282611a5a565b5050565b60006113b582611205565b6113f4576040517f08c379a00000000000000000000000000000000000000000000000000000000081526004016113eb90612976565b60405180910390fd5b60006113ff83610b08565b90508073ffffffffffffffffffffffffffffffffffffffff168473ffffffffffffffffffffffffffffffffffffffff16148061144157506114408185610ff9565b5b8061147f57508373ffffffffffffffffffffffffffffffffffffffff16611467846106c4565b73ffffffffffffffffffffffffffffffffffffffff16145b91505092915050565b8273ffffffffffffffffffffffffffffffffffffffff166114a882610b08565b73ffffffffffffffffffffffffffffffffffffffff16146114fe576040517f08c379a00000000000000000000000000000000000000000000000000000000081526004016114f5906128d6565b60405180910390fd5b600073ffffffffffffffffffffffffffffffffffffffff168273ffffffffffffffffffffffffffffffffffffffff16141561156e576040517f08c379a000000000000000000000000000000000000000000000000000000000815260040161156590612936565b60405180910390fd5b611579838383611ace565b611584600082611279565b6001600360008573ffffffffffffffffffffffffffffffffffffffff1673ffffffffffffffffffffffffffffffffffffffff16815260200190815260200160002060008282546115d49190612c6c565b925050819055506001600360008473ffffffffffffffffffffffffffffffffffffffff1673ffffffffffffffffffffffffffffffffffffffff168152602001908152602001600020600082825461162b9190612be5565b92505081905550816002600083815260200190815260200160002060006101000a81548173ffffffffffffffffffffffffffffffffffffffff021916908373ffffffffffffffffffffffffffffffffffffffff160217905550808273ffffffffffffffffffffffffffffffffffffffff168473ffffffffffffffffffffffffffffffffffffffff167fddf252ad1be2c89b69c2b068fc378daa952ba7f163c4a11628f55a4df523b3ef60405160405180910390a46116ea838383611ad3565b505050565b6000600760009054906101000a900473ffffffffffffffffffffffffffffffffffffffff16905081600760006101000a81548173ffffffffffffffffffffffffffffffffffffffff021916908373ffffffffffffffffffffffffffffffffffffffff1602179055508173ffffffffffffffffffffffffffffffffffffffff168173ffffffffffffffffffffffffffffffffffffffff167f8be0079c531659141344cd1fd0a4f28419497f9722a3daafe3b4186f6b6457e060405160405180910390a35050565b8173ffffffffffffffffffffffffffffffffffffffff168373ffffffffffffffffffffffffffffffffffffffff161415611824576040517f08c379a000000000000000000000000000000000000000000000000000000000815260040161181b90612956565b60405180910390fd5b80600560008573ffffffffffffffffffffffffffffffffffffffff1673ffffffffffffffffffffffffffffffffffffffff16815260200190815260200160002060008473ffffffffffffffffffffffffffffffffffffffff1673ffffffffffffffffffffffffffffffffffffffff16815260200190815260200160002060006101000a81548160ff0219169083151502179055508173ffffffffffffffffffffffffffffffffffffffff168373ffffffffffffffffffffffffffffffffffffffff167f17307eab39ab6107e8899845ad3d59bd9653f200f220920489ca2b5937696c31836040516119159190612859565b60405180910390a3505050565b61192d848484611488565b61193984848484611ad8565b611978576040517f08c379a000000000000000000000000000000000000000000000000000000000815260040161196f90612896565b60405180910390fd5b50505050565b606060405180602001604052806000815250905090565b60606119a082611205565b6119df576040517f08c379a00000000000000000000000000000000000000000000000000000000081526004016119d690612ab6565b60405180910390fd5b60006119e961197e565b90506000815111611a095760405180602001604052806000815250611a34565b80611a1384611c6f565b604051602001611a249291906127a5565b6040516020818303038152906040525b915050919050565b611a56828260405180602001604052806000815250611e1c565b5050565b611a6382611205565b611aa2576040517f08c379a0000000000000000000000000000000000000000000000000000000008152600401611a9990612a16565b60405180910390fd5b80600660008481526020019081526020016000209080519060200190611ac9929190612074565b505050565b505050565b505050565b6000611af98473ffffffffffffffffffffffffffffffffffffffff16611e77565b15611c62578373ffffffffffffffffffffffffffffffffffffffff1663150b7a02611b22611271565b8786866040518563ffffffff1660e01b8152600401611b4494939291906127e4565b602060405180830381600087803b158015611b5e57600080fd5b505af1925050508015611b8f57506040513d601f19601f82011682018060405250810190611b8c91906123b8565b60015b611c12573d8060008114611bbf576040519150601f19603f3d011682016040523d82523d6000602084013e611bc4565b606091505b50600081511415611c0a576040517f08c379a0000000000000000000000000000000000000000000000000000000008152600401611c0190612896565b60405180910390fd5b805181602001fd5b63150b7a0260e01b7bffffffffffffffffffffffffffffffffffffffffffffffffffffffff1916817bffffffffffffffffffffffffffffffffffffffffffffffffffffffff191614915050611c67565b600190505b949350505050565b60606000821415611cb7576040518060400160405280600181526020017f30000000000000000000000000000000000000000000000000000000000000008152509050611e17565b600082905060005b60008214611ce9578080611cd290612dc6565b915050600a82611ce29190612c3b565b9150611cbf565b60008167ffffffffffffffff811115611d2b577f4e487b7100000000000000000000000000000000000000000000000000000000600052604160045260246000fd5b6040519080825280601f01601f191660200182016040528015611d5d5781602001600182028036833780820191505090505b5090505b60008514611e1057600182611d769190612c6c565b9150600a85611d859190612e0f565b6030611d919190612be5565b60f81b818381518110611dcd577f4e487b7100000000000000000000000000000000000000000000000000000000600052603260045260246000fd5b60200101907effffffffffffffffffffffffffffffffffffffffffffffffffffffffffffff1916908160001a905350600a85611e099190612c3b565b9450611d61565b8093505050505b919050565b611e268383611e9a565b611e336000848484611ad8565b611e72576040517f08c379a0000000000000000000000000000000000000000000000000000000008152600401611e6990612896565b60405180910390fd5b505050565b6000808273ffffffffffffffffffffffffffffffffffffffff163b119050919050565b600073ffffffffffffffffffffffffffffffffffffffff168273ffffffffffffffffffffffffffffffffffffffff161415611f0a576040517f08c379a0000000000000000000000000000000000000000000000000000000008152600401611f0190612a36565b60405180910390fd5b611f1381611205565b15611f53576040517f08c379a0000000000000000000000000000000000000000000000000000000008152600401611f4a906128f6565b60405180910390fd5b611f5f60008383611ace565b6001600360008473ffffffffffffffffffffffffffffffffffffffff1673ffffffffffffffffffffffffffffffffffffffff1681526020019081526020016000206000828254611faf9190612be5565b92505081905550816002600083815260200190815260200160002060006101000a81548173ffffffffffffffffffffffffffffffffffffffff021916908373ffffffffffffffffffffffffffffffffffffffff160217905550808273ffffffffffffffffffffffffffffffffffffffff16600073ffffffffffffffffffffffffffffffffffffffff167fddf252ad1be2c89b69c2b068fc378daa952ba7f163c4a11628f55a4df523b3ef60405160405180910390a461207060008383611ad3565b5050565b82805461208090612d63565b90600052602060002090601f0160209004810192826120a257600085556120e9565b82601f106120bb57805160ff19168380011785556120e9565b828001600101855582156120e9579182015b828111156120e85782518255916020019190600101906120cd565b5b5090506120f691906120fa565b5090565b5b808211156121135760008160009055506001016120fb565b5090565b600061212a61212584612b71565b612b4c565b90508281526020810184848401111561214257600080fd5b61214d848285612d21565b509392505050565b60008135905061216481613455565b92915050565b6000813590506121798161346c565b92915050565b60008135905061218e81613483565b92915050565b6000815190506121a381613483565b92915050565b600082601f8301126121ba57600080fd5b81356121ca848260208601612117565b91505092915050565b6000813590506121e28161349a565b92915050565b6000602082840312156121fa57600080fd5b600061220884828501612155565b91505092915050565b6000806040838503121561222457600080fd5b600061223285828601612155565b925050602061224385828601612155565b9150509250929050565b60008060006060848603121561226257600080fd5b600061227086828701612155565b935050602061228186828701612155565b9250506040612292868287016121d3565b9150509250925092565b600080600080608085870312156122b257600080fd5b60006122c087828801612155565b94505060206122d187828801612155565b93505060406122e2878288016121d3565b925050606085013567ffffffffffffffff8111156122ff57600080fd5b61230b878288016121a9565b91505092959194509250565b6000806040838503121561232a57600080fd5b600061233885828601612155565b92505060206123498582860161216a565b9150509250929050565b6000806040838503121561236657600080fd5b600061237485828601612155565b9250506020612385858286016121d3565b9150509250929050565b6000602082840312156123a157600080fd5b60006123af8482850161217f565b91505092915050565b6000602082840312156123ca57600080fd5b60006123d884828501612194565b91505092915050565b6000602082840312156123f357600080fd5b6000612401848285016121d3565b91505092915050565b61241381612ca0565b82525050565b61242281612cb2565b82525050565b600061243382612ba2565b61243d8185612bb8565b935061244d818560208601612d30565b61245681612efc565b840191505092915050565b600061246c82612bad565b6124768185612bc9565b9350612486818560208601612d30565b61248f81612efc565b840191505092915050565b60006124a582612bad565b6124af8185612bda565b93506124bf818560208601612d30565b80840191505092915050565b60006124d8603283612bc9565b91506124e382612f0d565b604082019050919050565b60006124fb602683612bc9565b915061250682612f5c565b604082019050919050565b600061251e602583612bc9565b915061252982612fab565b604082019050919050565b6000612541601c83612bc9565b915061254c82612ffa565b602082019050919050565b6000612564601d83612bc9565b915061256f82613023565b602082019050919050565b6000612587602483612bc9565b91506125928261304c565b604082019050919050565b60006125aa601983612bc9565b91506125b58261309b565b602082019050919050565b60006125cd602c83612bc9565b91506125d8826130c4565b604082019050919050565b60006125f0602983612bc9565b91506125fb82613113565b604082019050919050565b6000612613603883612bc9565b915061261e82613162565b604082019050919050565b6000612636600d83612bc9565b9150612641826131b1565b602082019050919050565b6000612659602983612bc9565b9150612664826131da565b604082019050919050565b600061267c602e83612bc9565b915061268782613229565b604082019050919050565b600061269f602083612bc9565b91506126aa82613278565b602082019050919050565b60006126c2603183612bc9565b91506126cd826132a1565b604082019050919050565b60006126e5602c83612bc9565b91506126f0826132f0565b604082019050919050565b6000612708602083612bc9565b91506127138261333f565b602082019050919050565b600061272b602f83612bc9565b915061273682613368565b604082019050919050565b600061274e602183612bc9565b9150612759826133b7565b604082019050919050565b6000612771603183612bc9565b915061277c82613406565b604082019050919050565b61279081612d0a565b82525050565b61279f81612d14565b82525050565b60006127b1828561249a565b91506127bd828461249a565b91508190509392505050565b60006020820190506127de600083018461240a565b92915050565b60006080820190506127f9600083018761240a565b612806602083018661240a565b6128136040830185612787565b81810360608301526128258184612428565b905095945050505050565b6000604082019050612845600083018561240a565b6128526020830184612787565b9392505050565b600060208201905061286e6000830184612419565b92915050565b6000602082019050818103600083015261288e8184612461565b905092915050565b600060208201905081810360008301526128af816124cb565b9050919050565b600060208201905081810360008301526128cf816124ee565b9050919050565b600060208201905081810360008301526128ef81612511565b9050919050565b6000602082019050818103600083015261290f81612534565b9050919050565b6000602082019050818103600083015261292f81612557565b9050919050565b6000602082019050818103600083015261294f8161257a565b9050919050565b6000602082019050818103600083015261296f8161259d565b9050919050565b6000602082019050818103600083015261298f816125c0565b9050919050565b600060208201905081810360008301526129af816125e3565b9050919050565b600060208201905081810360008301526129cf81612606565b9050919050565b600060208201905081810360008301526129ef81612629565b9050919050565b60006020820190508181036000830152612a0f8161264c565b9050919050565b60006020820190508181036000830152612a2f8161266f565b9050919050565b60006020820190508181036000830152612a4f81612692565b9050919050565b60006020820190508181036000830152612a6f816126b5565b9050919050565b60006020820190508181036000830152612a8f816126d8565b9050919050565b60006020820190508181036000830152612aaf816126fb565b9050919050565b60006020820190508181036000830152612acf8161271e565b9050919050565b60006020820190508181036000830152612aef81612741565b9050919050565b60006020820190508181036000830152612b0f81612764565b9050919050565b6000602082019050612b2b6000830184612787565b92915050565b6000602082019050612b466000830184612796565b92915050565b6000612b56612b67565b9050612b628282612d95565b919050565b6000604051905090565b600067ffffffffffffffff821115612b8c57612b8b612ecd565b5b612b9582612efc565b9050602081019050919050565b600081519050919050565b600081519050919050565b600082825260208201905092915050565b600082825260208201905092915050565b600081905092915050565b6000612bf082612d0a565b9150612bfb83612d0a565b9250827fffffffffffffffffffffffffffffffffffffffffffffffffffffffffffffffff03821115612c3057612c2f612e40565b5b828201905092915050565b6000612c4682612d0a565b9150612c5183612d0a565b925082612c6157612c60612e6f565b5b828204905092915050565b6000612c7782612d0a565b9150612c8283612d0a565b925082821015612c9557612c94612e40565b5b828203905092915050565b6000612cab82612cea565b9050919050565b60008115159050919050565b60007fffffffff0000000000000000000000000000000000000000000000000000000082169050919050565b600073ffffffffffffffffffffffffffffffffffffffff82169050919050565b6000819050919050565b600060ff82169050919050565b82818337600083830152505050565b60005b83811015612d4e578082015181840152602081019050612d33565b83811115612d5d576000848401525b50505050565b60006002820490506001821680612d7b57607f821691505b60208210811415612d8f57612d8e612e9e565b5b50919050565b612d9e82612efc565b810181811067ffffffffffffffff82111715612dbd57612dbc612ecd565b5b80604052505050565b6000612dd182612d0a565b91507fffffffffffffffffffffffffffffffffffffffffffffffffffffffffffffffff821415612e0457612e03612e40565b5b600182019050919050565b6000612e1a82612d0a565b9150612e2583612d0a565b925082612e3557612e34612e6f565b5b828206905092915050565b7f4e487b7100000000000000000000000000000000000000000000000000000000600052601160045260246000fd5b7f4e487b7100000000000000000000000000000000000000000000000000000000600052601260045260246000fd5b7f4e487b7100000000000000000000000000000000000000000000000000000000600052602260045260246000fd5b7f4e487b7100000000000000000000000000000000000000000000000000000000600052604160045260246000fd5b6000601f19601f8301169050919050565b7f4552433732313a207472616e7366657220746f206e6f6e20455243373231526560008201527f63656976657220696d706c656d656e7465720000000000000000000000000000602082015250565b7f4f776e61626c653a206e6577206f776e657220697320746865207a65726f206160008201527f6464726573730000000000000000000000000000000000000000000000000000602082015250565b7f4552433732313a207472616e736665722066726f6d20696e636f72726563742060008201527f6f776e6572000000000000000000000000000000000000000000000000000000602082015250565b7f4552433732313a20746f6b656e20616c7265616479206d696e74656400000000600082015250565b7f7061737365732061726520736f6c64206f757420736f7272792062726f000000600082015250565b7f4552433732313a207472616e7366657220746f20746865207a65726f2061646460008201527f7265737300000000000000000000000000000000000000000000000000000000602082015250565b7f4552433732313a20617070726f766520746f2063616c6c657200000000000000600082015250565b7f4552433732313a206f70657261746f7220717565727920666f72206e6f6e657860008201527f697374656e7420746f6b656e0000000000000000000000000000000000000000602082015250565b7f4552433732313a2061646472657373207a65726f206973206e6f74206120766160008201527f6c6964206f776e65720000000000000000000000000000000000000000000000602082015250565b7f4552433732313a20617070726f76652063616c6c6572206973206e6f74206f7760008201527f6e6572206e6f7220617070726f76656420666f7220616c6c0000000000000000602082015250565b7f70617920666f72206e6f6e6f6700000000000000000000000000000000000000600082015250565b7f4552433732313a206f776e657220717565727920666f72206e6f6e657869737460008201527f656e7420746f6b656e0000000000000000000000000000000000000000000000602082015250565b7f45524337323155524953746f726167653a2055524920736574206f66206e6f6e60008201527f6578697374656e7420746f6b656e000000000000000000000000000000000000602082015250565b7f4552433732313a206d696e7420746f20746865207a65726f2061646472657373600082015250565b7f45524337323155524953746f726167653a2055524920717565727920666f722060008201527f6e6f6e6578697374656e7420746f6b656e000000000000000000000000000000602082015250565b7f4552433732313a20617070726f76656420717565727920666f72206e6f6e657860008201527f697374656e7420746f6b656e0000000000000000000000000000000000000000602082015250565b7f4f776e61626c653a2063616c6c6572206973206e6f7420746865206f776e6572600082015250565b7f4552433732314d657461646174613a2055524920717565727920666f72206e6f60008201527f6e6578697374656e7420746f6b656e0000000000000000000000000000000000602082015250565b7f4552433732313a20617070726f76616c20746f2063757272656e74206f776e6560008201527f7200000000000000000000000000000000000000000000000000000000000000602082015250565b7f4552433732313a207472616e736665722063616c6c6572206973206e6f74206f60008201527f776e6572206e6f7220617070726f766564000000000000000000000000000000602082015250565b61345e81612ca0565b811461346957600080fd5b50565b61347581612cb2565b811461348057600080fd5b50565b61348c81612cbe565b811461349757600080fd5b50565b6134a381612d0a565b81146134ae57600080fd5b5056fe697066733a2f2f6261666b726569686a79686371667a333534346b6a656d3535656c3366613377687466686f61676c3565686362353634656d7364336f6364793771697066733a2f2f6261666b7265696132707a6d6a7a657a636967747136686c626e726d3471746f68377a34756c66727474656c7175667361646c7432767768717734a2646970667358221220ef996599903116122c19957c180f51329a4073da6794d12ae41aff4f7d66584864736f6c63430008040033",
  "linkReferences": {},
  "deployedLinkReferences": {}
}